{
  "address": "0x501Cd35627E533B219e1236E45516258D10e48D8",
  "abi": [
    {
      "inputs": [
        {
          "internalType": "address",
          "name": "timelock_",
          "type": "address"
        },
        {
          "internalType": "address",
          "name": "BTRUST_",
          "type": "address"
        },
        {
          "internalType": "address",
          "name": "guardian_",
          "type": "address"
        }
      ],
      "payable": false,
      "stateMutability": "nonpayable",
      "type": "constructor"
    },
    {
      "anonymous": false,
      "inputs": [
        {
          "indexed": false,
          "internalType": "uint256",
          "name": "id",
          "type": "uint256"
        }
      ],
      "name": "ProposalCanceled",
      "type": "event"
    },
    {
      "anonymous": false,
      "inputs": [
        {
          "indexed": false,
          "internalType": "uint256",
          "name": "id",
          "type": "uint256"
        },
        {
          "indexed": false,
          "internalType": "address",
          "name": "proposer",
          "type": "address"
        },
        {
          "indexed": false,
          "internalType": "address[]",
          "name": "targets",
          "type": "address[]"
        },
        {
          "indexed": false,
          "internalType": "uint256[]",
          "name": "values",
          "type": "uint256[]"
        },
        {
          "indexed": false,
          "internalType": "string[]",
          "name": "signatures",
          "type": "string[]"
        },
        {
          "indexed": false,
          "internalType": "bytes[]",
          "name": "calldatas",
          "type": "bytes[]"
        },
        {
          "indexed": false,
          "internalType": "uint256",
          "name": "startBlock",
          "type": "uint256"
        },
        {
          "indexed": false,
          "internalType": "uint256",
          "name": "endBlock",
          "type": "uint256"
        },
        {
          "indexed": false,
          "internalType": "string",
          "name": "description",
          "type": "string"
        }
      ],
      "name": "ProposalCreated",
      "type": "event"
    },
    {
      "anonymous": false,
      "inputs": [
        {
          "indexed": false,
          "internalType": "uint256",
          "name": "id",
          "type": "uint256"
        }
      ],
      "name": "ProposalExecuted",
      "type": "event"
    },
    {
      "anonymous": false,
      "inputs": [
        {
          "indexed": false,
          "internalType": "uint256",
          "name": "id",
          "type": "uint256"
        },
        {
          "indexed": false,
          "internalType": "uint256",
          "name": "eta",
          "type": "uint256"
        }
      ],
      "name": "ProposalQueued",
      "type": "event"
    },
    {
      "anonymous": false,
      "inputs": [
        {
          "indexed": false,
          "internalType": "address",
          "name": "voter",
          "type": "address"
        },
        {
          "indexed": false,
          "internalType": "uint256",
          "name": "proposalId",
          "type": "uint256"
        },
        {
          "indexed": false,
          "internalType": "bool",
          "name": "support",
          "type": "bool"
        },
        {
          "indexed": false,
          "internalType": "uint256",
          "name": "votes",
          "type": "uint256"
        }
      ],
      "name": "VoteCast",
      "type": "event"
    },
    {
      "constant": true,
      "inputs": [],
      "name": "BALLOT_TYPEHASH",
      "outputs": [
        {
          "internalType": "bytes32",
          "name": "",
          "type": "bytes32"
        }
      ],
      "payable": false,
      "stateMutability": "view",
      "type": "function"
    },
    {
      "constant": true,
      "inputs": [],
      "name": "BTRUST",
      "outputs": [
        {
          "internalType": "contract BTRUSTInterface",
          "name": "",
          "type": "address"
        }
      ],
      "payable": false,
      "stateMutability": "view",
      "type": "function"
    },
    {
      "constant": true,
      "inputs": [],
      "name": "DOMAIN_TYPEHASH",
      "outputs": [
        {
          "internalType": "bytes32",
          "name": "",
          "type": "bytes32"
        }
      ],
      "payable": false,
      "stateMutability": "view",
      "type": "function"
    },
    {
      "constant": false,
      "inputs": [],
      "name": "__abdicate",
      "outputs": [],
      "payable": false,
      "stateMutability": "nonpayable",
      "type": "function"
    },
    {
      "constant": false,
      "inputs": [],
      "name": "__acceptAdmin",
      "outputs": [],
      "payable": false,
      "stateMutability": "nonpayable",
      "type": "function"
    },
    {
      "constant": false,
      "inputs": [
        {
          "internalType": "address",
          "name": "newPendingAdmin",
          "type": "address"
        },
        {
          "internalType": "uint256",
          "name": "eta",
          "type": "uint256"
        }
      ],
      "name": "__executeSetTimelockPendingAdmin",
      "outputs": [],
      "payable": false,
      "stateMutability": "nonpayable",
      "type": "function"
    },
    {
      "constant": false,
      "inputs": [
        {
          "internalType": "address",
          "name": "newPendingAdmin",
          "type": "address"
        },
        {
          "internalType": "uint256",
          "name": "eta",
          "type": "uint256"
        }
      ],
      "name": "__queueSetTimelockPendingAdmin",
      "outputs": [],
      "payable": false,
      "stateMutability": "nonpayable",
      "type": "function"
    },
    {
      "constant": false,
      "inputs": [
        {
          "internalType": "uint256",
          "name": "proposalId",
          "type": "uint256"
        }
      ],
      "name": "cancel",
      "outputs": [],
      "payable": false,
      "stateMutability": "nonpayable",
      "type": "function"
    },
    {
      "constant": false,
      "inputs": [
        {
          "internalType": "uint256",
          "name": "proposalId",
          "type": "uint256"
        },
        {
          "internalType": "bool",
          "name": "support",
          "type": "bool"
        }
      ],
      "name": "castVote",
      "outputs": [],
      "payable": false,
      "stateMutability": "nonpayable",
      "type": "function"
    },
    {
      "constant": false,
      "inputs": [
        {
          "internalType": "uint256",
          "name": "proposalId",
          "type": "uint256"
        },
        {
          "internalType": "bool",
          "name": "support",
          "type": "bool"
        },
        {
          "internalType": "uint8",
          "name": "v",
          "type": "uint8"
        },
        {
          "internalType": "bytes32",
          "name": "r",
          "type": "bytes32"
        },
        {
          "internalType": "bytes32",
          "name": "s",
          "type": "bytes32"
        }
      ],
      "name": "castVoteBySig",
      "outputs": [],
      "payable": false,
      "stateMutability": "nonpayable",
      "type": "function"
    },
    {
      "constant": false,
      "inputs": [
        {
          "internalType": "uint256",
          "name": "proposalId",
          "type": "uint256"
        }
      ],
      "name": "execute",
      "outputs": [],
      "payable": true,
      "stateMutability": "payable",
      "type": "function"
    },
    {
      "constant": true,
      "inputs": [
        {
          "internalType": "uint256",
          "name": "proposalId",
          "type": "uint256"
        }
      ],
      "name": "getActions",
      "outputs": [
        {
          "internalType": "address[]",
          "name": "targets",
          "type": "address[]"
        },
        {
          "internalType": "uint256[]",
          "name": "values",
          "type": "uint256[]"
        },
        {
          "internalType": "string[]",
          "name": "signatures",
          "type": "string[]"
        },
        {
          "internalType": "bytes[]",
          "name": "calldatas",
          "type": "bytes[]"
        }
      ],
      "payable": false,
      "stateMutability": "view",
      "type": "function"
    },
    {
      "constant": true,
      "inputs": [
        {
          "internalType": "uint256",
          "name": "proposalId",
          "type": "uint256"
        },
        {
          "internalType": "address",
          "name": "voter",
          "type": "address"
        }
      ],
      "name": "getReceipt",
      "outputs": [
        {
          "components": [
            {
              "internalType": "bool",
              "name": "hasVoted",
              "type": "bool"
            },
            {
              "internalType": "bool",
              "name": "support",
              "type": "bool"
            },
            {
              "internalType": "uint96",
              "name": "votes",
              "type": "uint96"
            }
          ],
          "internalType": "struct GovernorAlpha.Receipt",
          "name": "",
          "type": "tuple"
        }
      ],
      "payable": false,
      "stateMutability": "view",
      "type": "function"
    },
    {
      "constant": true,
      "inputs": [],
      "name": "guardian",
      "outputs": [
        {
          "internalType": "address",
          "name": "",
          "type": "address"
        }
      ],
      "payable": false,
      "stateMutability": "view",
      "type": "function"
    },
    {
      "constant": true,
      "inputs": [
        {
          "internalType": "address",
          "name": "",
          "type": "address"
        }
      ],
      "name": "latestProposalIds",
      "outputs": [
        {
          "internalType": "uint256",
          "name": "",
          "type": "uint256"
        }
      ],
      "payable": false,
      "stateMutability": "view",
      "type": "function"
    },
    {
      "constant": true,
      "inputs": [],
      "name": "name",
      "outputs": [
        {
          "internalType": "string",
          "name": "",
          "type": "string"
        }
      ],
      "payable": false,
      "stateMutability": "view",
      "type": "function"
    },
    {
      "constant": true,
      "inputs": [],
      "name": "proposalCount",
      "outputs": [
        {
          "internalType": "uint256",
          "name": "",
          "type": "uint256"
        }
      ],
      "payable": false,
      "stateMutability": "view",
      "type": "function"
    },
    {
      "constant": true,
      "inputs": [],
      "name": "proposalMaxOperations",
      "outputs": [
        {
          "internalType": "uint256",
          "name": "",
          "type": "uint256"
        }
      ],
      "payable": false,
      "stateMutability": "pure",
      "type": "function"
    },
    {
      "constant": true,
      "inputs": [],
      "name": "proposalThreshold",
      "outputs": [
        {
          "internalType": "uint256",
          "name": "",
          "type": "uint256"
        }
      ],
      "payable": false,
      "stateMutability": "pure",
      "type": "function"
    },
    {
      "constant": true,
      "inputs": [
        {
          "internalType": "uint256",
          "name": "",
          "type": "uint256"
        }
      ],
      "name": "proposals",
      "outputs": [
        {
          "internalType": "uint256",
          "name": "id",
          "type": "uint256"
        },
        {
          "internalType": "address",
          "name": "proposer",
          "type": "address"
        },
        {
          "internalType": "uint256",
          "name": "eta",
          "type": "uint256"
        },
        {
          "internalType": "uint256",
          "name": "startBlock",
          "type": "uint256"
        },
        {
          "internalType": "uint256",
          "name": "endBlock",
          "type": "uint256"
        },
        {
          "internalType": "uint256",
          "name": "forVotes",
          "type": "uint256"
        },
        {
          "internalType": "uint256",
          "name": "againstVotes",
          "type": "uint256"
        },
        {
          "internalType": "bool",
          "name": "canceled",
          "type": "bool"
        },
        {
          "internalType": "bool",
          "name": "executed",
          "type": "bool"
        }
      ],
      "payable": false,
      "stateMutability": "view",
      "type": "function"
    },
    {
      "constant": false,
      "inputs": [
        {
          "internalType": "address[]",
          "name": "targets",
          "type": "address[]"
        },
        {
          "internalType": "uint256[]",
          "name": "values",
          "type": "uint256[]"
        },
        {
          "internalType": "string[]",
          "name": "signatures",
          "type": "string[]"
        },
        {
          "internalType": "bytes[]",
          "name": "calldatas",
          "type": "bytes[]"
        },
        {
          "internalType": "string",
          "name": "description",
          "type": "string"
        }
      ],
      "name": "propose",
      "outputs": [
        {
          "internalType": "uint256",
          "name": "",
          "type": "uint256"
        }
      ],
      "payable": false,
      "stateMutability": "nonpayable",
      "type": "function"
    },
    {
      "constant": false,
      "inputs": [
        {
          "internalType": "uint256",
          "name": "proposalId",
          "type": "uint256"
        }
      ],
      "name": "queue",
      "outputs": [],
      "payable": false,
      "stateMutability": "nonpayable",
      "type": "function"
    },
    {
      "constant": true,
      "inputs": [],
      "name": "quorumVotes",
      "outputs": [
        {
          "internalType": "uint256",
          "name": "",
          "type": "uint256"
        }
      ],
      "payable": false,
      "stateMutability": "pure",
      "type": "function"
    },
    {
      "constant": true,
      "inputs": [
        {
          "internalType": "uint256",
          "name": "proposalId",
          "type": "uint256"
        }
      ],
      "name": "state",
      "outputs": [
        {
          "internalType": "enum GovernorAlpha.ProposalState",
          "name": "",
          "type": "uint8"
        }
      ],
      "payable": false,
      "stateMutability": "view",
      "type": "function"
    },
    {
      "constant": true,
      "inputs": [],
      "name": "timelock",
      "outputs": [
        {
          "internalType": "contract TimelockInterface",
          "name": "",
          "type": "address"
        }
      ],
      "payable": false,
      "stateMutability": "view",
      "type": "function"
    },
    {
      "constant": true,
      "inputs": [],
      "name": "votingDelay",
      "outputs": [
        {
          "internalType": "uint256",
          "name": "",
          "type": "uint256"
        }
      ],
      "payable": false,
      "stateMutability": "pure",
      "type": "function"
    },
    {
      "constant": true,
      "inputs": [],
      "name": "votingPeriod",
      "outputs": [
        {
          "internalType": "uint256",
          "name": "",
          "type": "uint256"
        }
      ],
      "payable": false,
      "stateMutability": "pure",
      "type": "function"
    }
  ],
  "transactionHash": "0x84b1d7756e8d53cb952da80dc4ebbe6e15b867a9bc9334433f2fbedeed308e1e",
  "args": [
    "0x37d9259cfcA142a9bC09902B6DfE0E9C4f858E9c",
    "0x8aD553B014105b17eBb308a0f928bdF2c6355cf0",
    "0x77fE84B9b278F979d904F358C729363997280205"
  ],
  "solcInputHash": "4f69f567db5bca715e10211c19f15614",
  "bytecode": "0x60806040523480156200001157600080fd5b506040516200546c3803806200546c833981810160405262000037919081019062000119565b826000806101000a81548173ffffffffffffffffffffffffffffffffffffffff021916908373ffffffffffffffffffffffffffffffffffffffff16021790555081600160006101000a81548173ffffffffffffffffffffffffffffffffffffffff021916908373ffffffffffffffffffffffffffffffffffffffff16021790555080600260006101000a81548173ffffffffffffffffffffffffffffffffffffffff021916908373ffffffffffffffffffffffffffffffffffffffff160217905550505050620001bd565b6000815190506200011381620001a3565b92915050565b6000806000606084860312156200012f57600080fd5b60006200013f8682870162000102565b9350506020620001528682870162000102565b9250506040620001658682870162000102565b9150509250925092565b60006200017c8262000183565b9050919050565b600073ffffffffffffffffffffffffffffffffffffffff82169050919050565b620001ae816200016f565b8114620001ba57600080fd5b50565b61529f80620001cd6000396000f3fe60806040526004361061019c5760003560e01c80634634c61f116100ec578063da35c6641161008a578063deaaa7cc11610064578063deaaa7cc146105af578063e23a9a52146105da578063e80978f614610617578063fe0d94c1146106425761019c565b8063da35c6641461051e578063da95691a14610549578063ddf0b009146105865761019c565b806391500671116100c65780639150067114610488578063b58131b0146104b1578063b9a61961146104dc578063d33219b4146104f35761019c565b80634634c61f1461041d578063760fbc13146104465780637bdbe4d01461045d5761019c565b806321f43e42116101595780633932abb1116101335780633932abb1146103615780633e4f49e61461038c57806340e58ee5146103c9578063452a9320146103f25761019c565b806321f43e42146102cd57806324bc1a64146102f6578063328dd982146103215761019c565b8063013cf08b146101a157806302a251a3146101e657806306fdde031461021157806315373e3d1461023c57806317977c611461026557806320606b70146102a2575b600080fd5b3480156101ad57600080fd5b506101c860048036036101c39190810190613373565b61065e565b6040516101dd99989796959493929190614c6e565b60405180910390f35b3480156101f257600080fd5b506101fb6106e6565b6040516102089190614ba3565b60405180910390f35b34801561021d57600080fd5b506102266106f0565b60405161023391906148c6565b60405180910390f35b34801561024857600080fd5b50610263600480360361025e9190810190613401565b610729565b005b34801561027157600080fd5b5061028c6004803603610287919081019061318c565b610738565b6040516102999190614ba3565b60405180910390f35b3480156102ae57600080fd5b506102b7610750565b6040516102c49190614799565b60405180910390f35b3480156102d957600080fd5b506102f460048036036102ef91908101906131b5565b610767565b005b34801561030257600080fd5b5061030b6108f4565b6040516103189190614ba3565b60405180910390f35b34801561032d57600080fd5b5061034860048036036103439190810190613373565b610907565b6040516103589493929190614738565b60405180910390f35b34801561036d57600080fd5b50610376610be4565b6040516103839190614ba3565b60405180910390f35b34801561039857600080fd5b506103b360048036036103ae9190810190613373565b610bed565b6040516103c091906148ab565b60405180910390f35b3480156103d557600080fd5b506103f060048036036103eb9190810190613373565b610dd1565b005b3480156103fe57600080fd5b5061040761116d565b6040516104149190614565565b60405180910390f35b34801561042957600080fd5b50610444600480360361043f919081019061343d565b611193565b005b34801561045257600080fd5b5061045b611362565b005b34801561046957600080fd5b50610472611436565b60405161047f9190614ba3565b60405180910390f35b34801561049457600080fd5b506104af60048036036104aa91908101906131b5565b61143f565b005b3480156104bd57600080fd5b506104c66115c7565b6040516104d39190614ba3565b60405180910390f35b3480156104e857600080fd5b506104f16115da565b005b3480156104ff57600080fd5b506105086116ed565b6040516105159190614890565b60405180910390f35b34801561052a57600080fd5b50610533611712565b6040516105409190614ba3565b60405180910390f35b34801561055557600080fd5b50610570600480360361056b91908101906131f1565b611718565b60405161057d9190614ba3565b60405180910390f35b34801561059257600080fd5b506105ad60048036036105a89190810190613373565b611ce5565b005b3480156105bb57600080fd5b506105c4612034565b6040516105d19190614799565b60405180910390f35b3480156105e657600080fd5b5061060160048036036105fc91908101906133c5565b61204b565b60405161060e9190614b88565b60405180910390f35b34801561062357600080fd5b5061062c61212d565b6040516106399190614875565b60405180910390f35b61065c60048036036106579190810190613373565b612153565b005b60046020528060005260406000206000915090508060000154908060010160009054906101000a900473ffffffffffffffffffffffffffffffffffffffff169080600201549080600701549080600801549080600901549080600a01549080600b0160009054906101000a900460ff169080600b0160019054906101000a900460ff16905089565b6000614380905090565b6040518060400160405280601581526020017f42545255535420476f7665726e6f7220416c706861000000000000000000000081525081565b6107343383836123a0565b5050565b60056020528060005260406000206000915090505481565b60405161075c9061453b565b604051809103902081565b600260009054906101000a900473ffffffffffffffffffffffffffffffffffffffff1673ffffffffffffffffffffffffffffffffffffffff163373ffffffffffffffffffffffffffffffffffffffff16146107f7576040517f08c379a00000000000000000000000000000000000000000000000000000000081526004016107ee90614948565b60405180910390fd5b6000809054906101000a900473ffffffffffffffffffffffffffffffffffffffff1673ffffffffffffffffffffffffffffffffffffffff16630825f38f6000809054906101000a900473ffffffffffffffffffffffffffffffffffffffff166000856040516020016108699190614565565b604051602081830303815290604052856040518563ffffffff1660e01b815260040161089894939291906145a9565b600060405180830381600087803b1580156108b257600080fd5b505af11580156108c6573d6000803e3d6000fd5b505050506040513d6000823e3d601f19601f820116820180604052506108ef9190810190613332565b505050565b60006a14adf4b7320334b9000000905090565b606080606080600060046000878152602001908152602001600020905080600301816004018260050183600601838054806020026020016040519081016040528092919081815260200182805480156109b557602002820191906000526020600020905b8160009054906101000a900473ffffffffffffffffffffffffffffffffffffffff1673ffffffffffffffffffffffffffffffffffffffff168152602001906001019080831161096b575b5050505050935082805480602002602001604051908101604052809291908181526020018280548015610a0757602002820191906000526020600020905b8154815260200190600101908083116109f3575b5050505050925081805480602002602001604051908101604052809291908181526020016000905b82821015610aeb578382906000526020600020018054600181600116156101000203166002900480601f016020809104026020016040519081016040528092919081815260200182805460018160011615610100020316600290048015610ad75780601f10610aac57610100808354040283529160200191610ad7565b820191906000526020600020905b815481529060010190602001808311610aba57829003601f168201915b505050505081526020019060010190610a2f565b50505050915080805480602002602001604051908101604052809291908181526020016000905b82821015610bce578382906000526020600020018054600181600116156101000203166002900480601f016020809104026020016040519081016040528092919081815260200182805460018160011615610100020316600290048015610bba5780601f10610b8f57610100808354040283529160200191610bba565b820191906000526020600020905b815481529060010190602001808311610b9d57829003601f168201915b505050505081526020019060010190610b12565b5050505090509450945094509450509193509193565b60006001905090565b60008160035410158015610c015750600082115b610c40576040517f08c379a0000000000000000000000000000000000000000000000000000000008152600401610c3790614968565b60405180910390fd5b600060046000848152602001908152602001600020905080600b0160009054906101000a900460ff1615610c78576002915050610dcc565b80600701544311610c8d576000915050610dcc565b80600801544311610ca2576001915050610dcc565b80600a01548160090154111580610cc35750610cbc6108f4565b8160090154105b15610cd2576003915050610dcc565b600081600201541415610ce9576004915050610dcc565b80600b0160019054906101000a900460ff1615610d0a576007915050610dcc565b610db681600201546000809054906101000a900473ffffffffffffffffffffffffffffffffffffffff1673ffffffffffffffffffffffffffffffffffffffff1663c1a287e26040518163ffffffff1660e01b815260040160206040518083038186803b158015610d7957600080fd5b505afa158015610d8d573d6000803e3d6000fd5b505050506040513d601f19601f82011682018060405250610db1919081019061339c565b61266f565b4210610dc6576006915050610dcc565b60059150505b919050565b6000610ddc82610bed565b9050600780811115610dea57fe5b816007811115610df657fe5b1415610e37576040517f08c379a0000000000000000000000000000000000000000000000000000000008152600401610e2e90614b08565b60405180910390fd5b6000600460008481526020019081526020016000209050600260009054906101000a900473ffffffffffffffffffffffffffffffffffffffff1673ffffffffffffffffffffffffffffffffffffffff163373ffffffffffffffffffffffffffffffffffffffff161480610f985750610ead6115c7565b600160009054906101000a900473ffffffffffffffffffffffffffffffffffffffff1673ffffffffffffffffffffffffffffffffffffffff1663782d6fe18360010160009054906101000a900473ffffffffffffffffffffffffffffffffffffffff16610f1b4360016126c4565b6040518363ffffffff1660e01b8152600401610f38929190614608565b60206040518083038186803b158015610f5057600080fd5b505afa158015610f64573d6000803e3d6000fd5b505050506040513d601f19601f82011682018060405250610f8891908101906134b4565b6bffffffffffffffffffffffff16105b610fd7576040517f08c379a0000000000000000000000000000000000000000000000000000000008152600401610fce90614a48565b60405180910390fd5b600181600b0160006101000a81548160ff02191690831515021790555060008090505b8160030180549050811015611130576000809054906101000a900473ffffffffffffffffffffffffffffffffffffffff1673ffffffffffffffffffffffffffffffffffffffff1663591fcdfe83600301838154811061105557fe5b9060005260206000200160009054906101000a900473ffffffffffffffffffffffffffffffffffffffff1684600401848154811061108f57fe5b90600052602060002001548560050185815481106110a957fe5b906000526020600020018660060186815481106110c257fe5b9060005260206000200187600201546040518663ffffffff1660e01b81526004016110f19594939291906146d7565b600060405180830381600087803b15801561110b57600080fd5b505af115801561111f573d6000803e3d6000fd5b505050508080600101915050610ffa565b507f789cf55be980739dad1d0699b93b58e806b51c9d96619bfa8fe0a28abaa7b30c836040516111609190614ba3565b60405180910390a1505050565b600260009054906101000a900473ffffffffffffffffffffffffffffffffffffffff1681565b60006040516111a19061453b565b60405180910390206040518060400160405280601581526020017f42545255535420476f7665726e6f7220416c7068610000000000000000000000815250805190602001206111ee612714565b3060405160200161120294939291906147b4565b604051602081830303815290604052805190602001209050600060405161122890614550565b60405180910390208787604051602001611244939291906147f9565b60405160208183030381529060405280519060200120905060008282604051602001611271929190614504565b6040516020818303038152906040528051906020012090506000600182888888604051600081526020016040526040516112ae9493929190614830565b6020604051602081039080840390855afa1580156112d0573d6000803e3d6000fd5b505050602060405103519050600073ffffffffffffffffffffffffffffffffffffffff168173ffffffffffffffffffffffffffffffffffffffff16141561134c576040517f08c379a000000000000000000000000000000000000000000000000000000000815260040161134390614ac8565b60405180910390fd5b611357818a8a6123a0565b505050505050505050565b600260009054906101000a900473ffffffffffffffffffffffffffffffffffffffff1673ffffffffffffffffffffffffffffffffffffffff163373ffffffffffffffffffffffffffffffffffffffff16146113f2576040517f08c379a00000000000000000000000000000000000000000000000000000000081526004016113e990614b68565b60405180910390fd5b6000600260006101000a81548173ffffffffffffffffffffffffffffffffffffffff021916908373ffffffffffffffffffffffffffffffffffffffff160217905550565b6000600a905090565b600260009054906101000a900473ffffffffffffffffffffffffffffffffffffffff1673ffffffffffffffffffffffffffffffffffffffff163373ffffffffffffffffffffffffffffffffffffffff16146114cf576040517f08c379a00000000000000000000000000000000000000000000000000000000081526004016114c6906149c8565b60405180910390fd5b6000809054906101000a900473ffffffffffffffffffffffffffffffffffffffff1673ffffffffffffffffffffffffffffffffffffffff16633a66f9016000809054906101000a900473ffffffffffffffffffffffffffffffffffffffff166000856040516020016115419190614565565b604051602081830303815290604052856040518563ffffffff1660e01b815260040161157094939291906145a9565b602060405180830381600087803b15801561158a57600080fd5b505af115801561159e573d6000803e3d6000fd5b505050506040513d601f19601f820116820180604052506115c29190810190613309565b505050565b60006a0211654585005212800000905090565b600260009054906101000a900473ffffffffffffffffffffffffffffffffffffffff1673ffffffffffffffffffffffffffffffffffffffff163373ffffffffffffffffffffffffffffffffffffffff161461166a576040517f08c379a0000000000000000000000000000000000000000000000000000000008152600401611661906148e8565b60405180910390fd5b6000809054906101000a900473ffffffffffffffffffffffffffffffffffffffff1673ffffffffffffffffffffffffffffffffffffffff16630e18b6816040518163ffffffff1660e01b8152600401600060405180830381600087803b1580156116d357600080fd5b505af11580156116e7573d6000803e3d6000fd5b50505050565b6000809054906101000a900473ffffffffffffffffffffffffffffffffffffffff1681565b60035481565b60006117226115c7565b600160009054906101000a900473ffffffffffffffffffffffffffffffffffffffff1673ffffffffffffffffffffffffffffffffffffffff1663782d6fe13361176c4360016126c4565b6040518363ffffffff1660e01b8152600401611789929190614580565b60206040518083038186803b1580156117a157600080fd5b505afa1580156117b5573d6000803e3d6000fd5b505050506040513d601f19601f820116820180604052506117d991908101906134b4565b6bffffffffffffffffffffffff1611611827576040517f08c379a000000000000000000000000000000000000000000000000000000000815260040161181e90614aa8565b60405180910390fd5b84518651148015611839575083518651145b8015611846575082518651145b611885576040517f08c379a000000000000000000000000000000000000000000000000000000000815260040161187c90614a28565b60405180910390fd5b6000865114156118ca576040517f08c379a00000000000000000000000000000000000000000000000000000000081526004016118c190614a88565b60405180910390fd5b6118d2611436565b86511115611915576040517f08c379a000000000000000000000000000000000000000000000000000000000815260040161190c906149e8565b60405180910390fd5b6000600560003373ffffffffffffffffffffffffffffffffffffffff1673ffffffffffffffffffffffffffffffffffffffff16815260200190815260200160002054905060008114611a2457600061196c82610bed565b90506001600781111561197b57fe5b81600781111561198757fe5b14156119c8576040517f08c379a00000000000000000000000000000000000000000000000000000000081526004016119bf90614ae8565b60405180910390fd5b600060078111156119d557fe5b8160078111156119e157fe5b1415611a22576040517f08c379a0000000000000000000000000000000000000000000000000000000008152600401611a19906149a8565b60405180910390fd5b505b6000611a3743611a32610be4565b61266f565b90506000611a4c82611a476106e6565b61266f565b9050600360008154809291906001019190505550611a686128f5565b604051806101a0016040528060035481526020013373ffffffffffffffffffffffffffffffffffffffff168152602001600081526020018b81526020018a815260200189815260200188815260200184815260200183815260200160008152602001600081526020016000151581526020016000151581525090508060046000836000015181526020019081526020016000206000820151816000015560208201518160010160006101000a81548173ffffffffffffffffffffffffffffffffffffffff021916908373ffffffffffffffffffffffffffffffffffffffff160217905550604082015181600201556060820151816003019080519060200190611b72929190612977565b506080820151816004019080519060200190611b8f929190612a01565b5060a0820151816005019080519060200190611bac929190612a4e565b5060c0820151816006019080519060200190611bc9929190612aae565b5060e082015181600701556101008201518160080155610120820151816009015561014082015181600a015561016082015181600b0160006101000a81548160ff02191690831515021790555061018082015181600b0160016101000a81548160ff021916908315150217905550905050806000015160056000836020015173ffffffffffffffffffffffffffffffffffffffff1673ffffffffffffffffffffffffffffffffffffffff168152602001908152602001600020819055507f7d84a6263ae0d98d3329bd7b46bb4e8d6f98cd35a7adb45c274c8b7fd5ebd5e08160000151338c8c8c8c89898e604051611cc999989796959493929190614bbe565b60405180910390a1806000015194505050505095945050505050565b60046007811115611cf257fe5b611cfb82610bed565b6007811115611d0657fe5b14611d46576040517f08c379a0000000000000000000000000000000000000000000000000000000008152600401611d3d90614908565b60405180910390fd5b60006004600083815260200190815260200160002090506000611e07426000809054906101000a900473ffffffffffffffffffffffffffffffffffffffff1673ffffffffffffffffffffffffffffffffffffffff16636a42b8f86040518163ffffffff1660e01b815260040160206040518083038186803b158015611dca57600080fd5b505afa158015611dde573d6000803e3d6000fd5b505050506040513d601f19601f82011682018060405250611e02919081019061339c565b61266f565b905060008090505b8260030180549050811015611fec57611fdf836003018281548110611e3057fe5b9060005260206000200160009054906101000a900473ffffffffffffffffffffffffffffffffffffffff16846004018381548110611e6a57fe5b9060005260206000200154856005018481548110611e8457fe5b906000526020600020018054600181600116156101000203166002900480601f016020809104026020016040519081016040528092919081815260200182805460018160011615610100020316600290048015611f225780601f10611ef757610100808354040283529160200191611f22565b820191906000526020600020905b815481529060010190602001808311611f0557829003601f168201915b5050505050866006018581548110611f3657fe5b906000526020600020018054600181600116156101000203166002900480601f016020809104026020016040519081016040528092919081815260200182805460018160011615610100020316600290048015611fd45780601f10611fa957610100808354040283529160200191611fd4565b820191906000526020600020905b815481529060010190602001808311611fb757829003601f168201915b505050505086612721565b8080600101915050611e0f565b508082600201819055507f9a2e42fd6722813d69113e7d0079d3d940171428df7373df9c7f7617cfda28928382604051612027929190614cfb565b60405180910390a1505050565b60405161204090614550565b604051809103902081565b612053612b0e565b60046000848152602001908152602001600020600c0160008373ffffffffffffffffffffffffffffffffffffffff1673ffffffffffffffffffffffffffffffffffffffff1681526020019081526020016000206040518060600160405290816000820160009054906101000a900460ff161515151581526020016000820160019054906101000a900460ff161515151581526020016000820160029054906101000a90046bffffffffffffffffffffffff166bffffffffffffffffffffffff166bffffffffffffffffffffffff1681525050905092915050565b600160009054906101000a900473ffffffffffffffffffffffffffffffffffffffff1681565b6005600781111561216057fe5b61216982610bed565b600781111561217457fe5b146121b4576040517f08c379a00000000000000000000000000000000000000000000000000000000081526004016121ab90614928565b60405180910390fd5b6000600460008381526020019081526020016000209050600181600b0160016101000a81548160ff02191690831515021790555060008090505b8160030180549050811015612364576000809054906101000a900473ffffffffffffffffffffffffffffffffffffffff1673ffffffffffffffffffffffffffffffffffffffff16630825f38f83600401838154811061224957fe5b906000526020600020015484600301848154811061226357fe5b9060005260206000200160009054906101000a900473ffffffffffffffffffffffffffffffffffffffff1685600401858154811061229d57fe5b90600052602060002001548660050186815481106122b757fe5b906000526020600020018760060187815481106122d057fe5b9060005260206000200188600201546040518763ffffffff1660e01b81526004016122ff9594939291906146d7565b6000604051808303818588803b15801561231857600080fd5b505af115801561232c573d6000803e3d6000fd5b50505050506040513d6000823e3d601f19601f820116820180604052506123569190810190613332565b5080806001019150506121ee565b507f712ae1383f79ac853f8d882153778e0260ef8f03b504e2866e0593e04d2b291f826040516123949190614ba3565b60405180910390a15050565b600160078111156123ad57fe5b6123b683610bed565b60078111156123c157fe5b14612401576040517f08c379a00000000000000000000000000000000000000000000000000000000081526004016123f890614b28565b60405180910390fd5b6000600460008481526020019081526020016000209050600081600c0160008673ffffffffffffffffffffffffffffffffffffffff1673ffffffffffffffffffffffffffffffffffffffff1681526020019081526020016000209050600015158160000160009054906101000a900460ff161515146124b5576040517f08c379a00000000000000000000000000000000000000000000000000000000081526004016124ac90614988565b60405180910390fd5b6000600160009054906101000a900473ffffffffffffffffffffffffffffffffffffffff1673ffffffffffffffffffffffffffffffffffffffff1663782d6fe18785600701546040518363ffffffff1660e01b8152600401612518929190614608565b60206040518083038186803b15801561253057600080fd5b505afa158015612544573d6000803e3d6000fd5b505050506040513d601f19601f8201168201806040525061256891908101906134b4565b905083156125995761258c8360090154826bffffffffffffffffffffffff1661266f565b83600901819055506125be565b6125b583600a0154826bffffffffffffffffffffffff1661266f565b83600a01819055505b60018260000160006101000a81548160ff021916908315150217905550838260000160016101000a81548160ff021916908315150217905550808260000160026101000a8154816bffffffffffffffffffffffff02191690836bffffffffffffffffffffffff1602179055507f877856338e13f63d0c36822ff0ef736b80934cd90574a3a5bc9262c39d217c468686868460405161265f9493929190614631565b60405180910390a1505050505050565b6000808284019050838110156126ba576040517f08c379a00000000000000000000000000000000000000000000000000000000081526004016126b190614a08565b60405180910390fd5b8091505092915050565b600082821115612709576040517f08c379a000000000000000000000000000000000000000000000000000000000815260040161270090614b48565b60405180910390fd5b818303905092915050565b6000804690508091505090565b6000809054906101000a900473ffffffffffffffffffffffffffffffffffffffff1673ffffffffffffffffffffffffffffffffffffffff1663f2b065378686868686604051602001612777959493929190614676565b604051602081830303815290604052805190602001206040518263ffffffff1660e01b81526004016127a99190614799565b60206040518083038186803b1580156127c157600080fd5b505afa1580156127d5573d6000803e3d6000fd5b505050506040513d601f19601f820116820180604052506127f991908101906132e0565b15612839576040517f08c379a000000000000000000000000000000000000000000000000000000000815260040161283090614a68565b60405180910390fd5b6000809054906101000a900473ffffffffffffffffffffffffffffffffffffffff1673ffffffffffffffffffffffffffffffffffffffff16633a66f90186868686866040518663ffffffff1660e01b815260040161289b959493929190614676565b602060405180830381600087803b1580156128b557600080fd5b505af11580156128c9573d6000803e3d6000fd5b505050506040513d601f19601f820116820180604052506128ed9190810190613309565b505050505050565b604051806101a0016040528060008152602001600073ffffffffffffffffffffffffffffffffffffffff1681526020016000815260200160608152602001606081526020016060815260200160608152602001600081526020016000815260200160008152602001600081526020016000151581526020016000151581525090565b8280548282559060005260206000209081019282156129f0579160200282015b828111156129ef5782518260006101000a81548173ffffffffffffffffffffffffffffffffffffffff021916908373ffffffffffffffffffffffffffffffffffffffff16021790555091602001919060010190612997565b5b5090506129fd9190612b41565b5090565b828054828255906000526020600020908101928215612a3d579160200282015b82811115612a3c578251825591602001919060010190612a21565b5b509050612a4a9190612b84565b5090565b828054828255906000526020600020908101928215612a9d579160200282015b82811115612a9c578251829080519060200190612a8c929190612ba9565b5091602001919060010190612a6e565b5b509050612aaa9190612c29565b5090565b828054828255906000526020600020908101928215612afd579160200282015b82811115612afc578251829080519060200190612aec929190612c55565b5091602001919060010190612ace565b5b509050612b0a9190612cd5565b5090565b604051806060016040528060001515815260200160001515815260200160006bffffffffffffffffffffffff1681525090565b612b8191905b80821115612b7d57600081816101000a81549073ffffffffffffffffffffffffffffffffffffffff021916905550600101612b47565b5090565b90565b612ba691905b80821115612ba2576000816000905550600101612b8a565b5090565b90565b828054600181600116156101000203166002900490600052602060002090601f016020900481019282601f10612bea57805160ff1916838001178555612c18565b82800160010185558215612c18579182015b82811115612c17578251825591602001919060010190612bfc565b5b509050612c259190612b84565b5090565b612c5291905b80821115612c4e5760008181612c459190612d01565b50600101612c2f565b5090565b90565b828054600181600116156101000203166002900490600052602060002090601f016020900481019282601f10612c9657805160ff1916838001178555612cc4565b82800160010185558215612cc4579182015b82811115612cc3578251825591602001919060010190612ca8565b5b509050612cd19190612b84565b5090565b612cfe91905b80821115612cfa5760008181612cf19190612d49565b50600101612cdb565b5090565b90565b50805460018160011615610100020316600290046000825580601f10612d275750612d46565b601f016020900490600052602060002090810190612d459190612b84565b5b50565b50805460018160011615610100020316600290046000825580601f10612d6f5750612d8e565b601f016020900490600052602060002090810190612d8d9190612b84565b5b50565b600081359050612da0816151d2565b92915050565b600082601f830112612db757600080fd5b8135612dca612dc582614d51565b614d24565b91508181835260208401935060208101905083856020840282011115612def57600080fd5b60005b83811015612e1f5781612e058882612d91565b845260208401935060208301925050600181019050612df2565b5050505092915050565b600082601f830112612e3a57600080fd5b8135612e4d612e4882614d79565b614d24565b9150818183526020840193506020810190508360005b83811015612e935781358601612e798882612fe8565b845260208401935060208301925050600181019050612e63565b5050505092915050565b600082601f830112612eae57600080fd5b8135612ec1612ebc82614da1565b614d24565b9150818183526020840193506020810190508360005b83811015612f075781358601612eed8882613090565b845260208401935060208301925050600181019050612ed7565b5050505092915050565b600082601f830112612f2257600080fd5b8135612f35612f3082614dc9565b614d24565b91508181835260208401935060208101905083856020840282011115612f5a57600080fd5b60005b83811015612f8a5781612f708882613138565b845260208401935060208301925050600181019050612f5d565b5050505092915050565b600081359050612fa3816151e9565b92915050565b600081519050612fb8816151e9565b92915050565b600081359050612fcd81615200565b92915050565b600081519050612fe281615200565b92915050565b600082601f830112612ff957600080fd5b813561300c61300782614df1565b614d24565b9150808252602083016020830185838301111561302857600080fd5b613033838284615168565b50505092915050565b600082601f83011261304d57600080fd5b815161306061305b82614e1d565b614d24565b9150808252602083016020830185838301111561307c57600080fd5b613087838284615177565b50505092915050565b600082601f8301126130a157600080fd5b81356130b46130af82614e49565b614d24565b915080825260208301602083018583830111156130d057600080fd5b6130db838284615168565b50505092915050565b600082601f8301126130f557600080fd5b813561310861310382614e75565b614d24565b9150808252602083016020830185838301111561312457600080fd5b61312f838284615168565b50505092915050565b60008135905061314781615217565b92915050565b60008151905061315c81615217565b92915050565b6000813590506131718161522e565b92915050565b60008151905061318681615245565b92915050565b60006020828403121561319e57600080fd5b60006131ac84828501612d91565b91505092915050565b600080604083850312156131c857600080fd5b60006131d685828601612d91565b92505060206131e785828601613138565b9150509250929050565b600080600080600060a0868803121561320957600080fd5b600086013567ffffffffffffffff81111561322357600080fd5b61322f88828901612da6565b955050602086013567ffffffffffffffff81111561324c57600080fd5b61325888828901612f11565b945050604086013567ffffffffffffffff81111561327557600080fd5b61328188828901612e9d565b935050606086013567ffffffffffffffff81111561329e57600080fd5b6132aa88828901612e29565b925050608086013567ffffffffffffffff8111156132c757600080fd5b6132d3888289016130e4565b9150509295509295909350565b6000602082840312156132f257600080fd5b600061330084828501612fa9565b91505092915050565b60006020828403121561331b57600080fd5b600061332984828501612fd3565b91505092915050565b60006020828403121561334457600080fd5b600082015167ffffffffffffffff81111561335e57600080fd5b61336a8482850161303c565b91505092915050565b60006020828403121561338557600080fd5b600061339384828501613138565b91505092915050565b6000602082840312156133ae57600080fd5b60006133bc8482850161314d565b91505092915050565b600080604083850312156133d857600080fd5b60006133e685828601613138565b92505060206133f785828601612d91565b9150509250929050565b6000806040838503121561341457600080fd5b600061342285828601613138565b925050602061343385828601612f94565b9150509250929050565b600080600080600060a0868803121561345557600080fd5b600061346388828901613138565b955050602061347488828901612f94565b945050604061348588828901613162565b935050606061349688828901612fbe565b92505060806134a788828901612fbe565b9150509295509295909350565b6000602082840312156134c657600080fd5b60006134d484828501613177565b91505092915050565b60006134e98383613544565b60208301905092915050565b60006135018383613785565b905092915050565b600061351583836138c2565b905092915050565b600061352983836144b9565b60208301905092915050565b61353e816150b4565b82525050565b61354d8161502a565b82525050565b61355c8161502a565b82525050565b600061356d82614f0b565b6135778185614f97565b935061358283614ea1565b8060005b838110156135b357815161359a88826134dd565b97506135a583614f63565b925050600181019050613586565b5085935050505092915050565b60006135cb82614f16565b6135d58185614fa8565b9350836020820285016135e785614eb1565b8060005b85811015613623578484038952815161360485826134f5565b945061360f83614f70565b925060208a019950506001810190506135eb565b50829750879550505050505092915050565b600061364082614f21565b61364a8185614fb9565b93508360208202850161365c85614ec1565b8060005b8581101561369857848403895281516136798582613509565b945061368483614f7d565b925060208a01995050600181019050613660565b50829750879550505050505092915050565b60006136b582614f2c565b6136bf8185614fca565b93506136ca83614ed1565b8060005b838110156136fb5781516136e2888261351d565b97506136ed83614f8a565b9250506001810190506136ce565b5085935050505092915050565b6137118161503c565b82525050565b6137208161503c565b82525050565b61372f81615048565b82525050565b61374661374182615048565b6151aa565b82525050565b600061375782614f42565b6137618185614fec565b9350613771818560208601615177565b61377a816151b4565b840191505092915050565b600061379082614f37565b61379a8185614fdb565b93506137aa818560208601615177565b6137b3816151b4565b840191505092915050565b6000815460018116600081146137db576001811461380157613845565b607f60028304166137ec8187614fec565b955060ff198316865260208601935050613845565b6002820461380f8187614fec565b955061381a85614ee1565b60005b8281101561383c5781548189015260018201915060208101905061381d565b80880195505050505b505092915050565b613856816150c6565b82525050565b613865816150ea565b82525050565b6138748161510e565b82525050565b61388381615120565b82525050565b600061389482614f58565b61389e818561500e565b93506138ae818560208601615177565b6138b7816151b4565b840191505092915050565b60006138cd82614f4d565b6138d78185614ffd565b93506138e7818560208601615177565b6138f0816151b4565b840191505092915050565b600061390682614f4d565b613910818561500e565b9350613920818560208601615177565b613929816151b4565b840191505092915050565b6000815460018116600081146139515760018114613977576139bb565b607f6002830416613962818761500e565b955060ff1983168652602086019350506139bb565b60028204613985818761500e565b955061399085614ef6565b60005b828110156139b257815481890152600182019150602081019050613993565b80880195505050505b505092915050565b60006139d060398361500e565b91507f476f7665726e6f72416c7068613a3a5f5f61636365707441646d696e3a20736560008301527f6e646572206d75737420626520676f7620677561726469616e000000000000006020830152604082019050919050565b6000613a3660448361500e565b91507f476f7665726e6f72416c7068613a3a71756575653a2070726f706f73616c206360008301527f616e206f6e6c792062652071756575656420696620697420697320737563636560208301527f65646564000000000000000000000000000000000000000000000000000000006040830152606082019050919050565b6000613ac260458361500e565b91507f476f7665726e6f72416c7068613a3a657865637574653a2070726f706f73616c60008301527f2063616e206f6e6c79206265206578656375746564206966206974206973207160208301527f75657565640000000000000000000000000000000000000000000000000000006040830152606082019050919050565b6000613b4e60028361501f565b91507f19010000000000000000000000000000000000000000000000000000000000006000830152600282019050919050565b6000613b8e604c8361500e565b91507f476f7665726e6f72416c7068613a3a5f5f6578656375746553657454696d656c60008301527f6f636b50656e64696e6741646d696e3a2073656e646572206d7573742062652060208301527f676f7620677561726469616e00000000000000000000000000000000000000006040830152606082019050919050565b6000613c1a60188361500e565b91507f73657450656e64696e6741646d696e28616464726573732900000000000000006000830152602082019050919050565b6000613c5a60298361500e565b91507f476f7665726e6f72416c7068613a3a73746174653a20696e76616c696420707260008301527f6f706f73616c20696400000000000000000000000000000000000000000000006020830152604082019050919050565b6000613cc0602d8361500e565b91507f476f7665726e6f72416c7068613a3a5f63617374566f74653a20766f7465722060008301527f616c726561647920766f746564000000000000000000000000000000000000006020830152604082019050919050565b6000613d2660598361500e565b91507f476f7665726e6f72416c7068613a3a70726f706f73653a206f6e65206c69766560008301527f2070726f706f73616c207065722070726f706f7365722c20666f756e6420616e60208301527f20616c72656164792070656e64696e672070726f706f73616c000000000000006040830152606082019050919050565b6000613db2604a8361500e565b91507f476f7665726e6f72416c7068613a3a5f5f717565756553657454696d656c6f6360008301527f6b50656e64696e6741646d696e3a2073656e646572206d75737420626520676f60208301527f7620677561726469616e000000000000000000000000000000000000000000006040830152606082019050919050565b6000613e3e60288361500e565b91507f476f7665726e6f72416c7068613a3a70726f706f73653a20746f6f206d616e7960008301527f20616374696f6e730000000000000000000000000000000000000000000000006020830152604082019050919050565b6000613ea460118361500e565b91507f6164646974696f6e206f766572666c6f770000000000000000000000000000006000830152602082019050919050565b6000613ee460438361501f565b91507f454950373132446f6d61696e28737472696e67206e616d652c75696e7432353660008301527f20636861696e49642c6164647265737320766572696679696e67436f6e74726160208301527f63742900000000000000000000000000000000000000000000000000000000006040830152604382019050919050565b6000613f7060278361501f565b91507f42616c6c6f742875696e743235362070726f706f73616c49642c626f6f6c207360008301527f7570706f727429000000000000000000000000000000000000000000000000006020830152602782019050919050565b6000613fd660448361500e565b91507f476f7665726e6f72416c7068613a3a70726f706f73653a2070726f706f73616c60008301527f2066756e6374696f6e20696e666f726d6174696f6e206172697479206d69736d60208301527f61746368000000000000000000000000000000000000000000000000000000006040830152606082019050919050565b6000614062602f8361500e565b91507f476f7665726e6f72416c7068613a3a63616e63656c3a2070726f706f7365722060008301527f61626f7665207468726573686f6c6400000000000000000000000000000000006020830152604082019050919050565b60006140c860448361500e565b91507f476f7665726e6f72416c7068613a3a5f71756575654f725265766572743a207060008301527f726f706f73616c20616374696f6e20616c72656164792071756575656420617460208301527f20657461000000000000000000000000000000000000000000000000000000006040830152606082019050919050565b6000614154602c8361500e565b91507f476f7665726e6f72416c7068613a3a70726f706f73653a206d7573742070726f60008301527f7669646520616374696f6e7300000000000000000000000000000000000000006020830152604082019050919050565b60006141ba603f8361500e565b91507f476f7665726e6f72416c7068613a3a70726f706f73653a2070726f706f73657260008301527f20766f7465732062656c6f772070726f706f73616c207468726573686f6c64006020830152604082019050919050565b6000614220602f8361500e565b91507f476f7665726e6f72416c7068613a3a63617374566f746542795369673a20696e60008301527f76616c6964207369676e617475726500000000000000000000000000000000006020830152604082019050919050565b600061428660588361500e565b91507f476f7665726e6f72416c7068613a3a70726f706f73653a206f6e65206c69766560008301527f2070726f706f73616c207065722070726f706f7365722c20666f756e6420616e60208301527f20616c7265616479206163746976652070726f706f73616c00000000000000006040830152606082019050919050565b600061431260368361500e565b91507f476f7665726e6f72416c7068613a3a63616e63656c3a2063616e6e6f7420636160008301527f6e63656c2065786563757465642070726f706f73616c000000000000000000006020830152604082019050919050565b6000614378602a8361500e565b91507f476f7665726e6f72416c7068613a3a5f63617374566f74653a20766f74696e6760008301527f20697320636c6f736564000000000000000000000000000000000000000000006020830152604082019050919050565b60006143de60158361500e565b91507f7375627472616374696f6e20756e646572666c6f7700000000000000000000006000830152602082019050919050565b600061441e60368361500e565b91507f476f7665726e6f72416c7068613a3a5f5f61626469636174653a2073656e646560008301527f72206d75737420626520676f7620677561726469616e000000000000000000006020830152604082019050919050565b60608201600082015161448d6000850182613708565b5060208201516144a06020850182613708565b5060408201516144b360408501826144f5565b50505050565b6144c281615085565b82525050565b6144d181615085565b82525050565b6144e08161508f565b82525050565b6144ef81615156565b82525050565b6144fe8161509c565b82525050565b600061450f82613b41565b915061451b8285613735565b60208201915061452b8284613735565b6020820191508190509392505050565b600061454682613ed7565b9150819050919050565b600061455b82613f63565b9150819050919050565b600060208201905061457a6000830184613553565b92915050565b60006040820190506145956000830185613535565b6145a260208301846144c8565b9392505050565b600060a0820190506145be6000830187613553565b6145cb602083018661387a565b81810360408301526145dc81613c0d565b905081810360608301526145f0818561374c565b90506145ff60808301846144c8565b95945050505050565b600060408201905061461d6000830185613553565b61462a60208301846144c8565b9392505050565b60006080820190506146466000830187613553565b61465360208301866144c8565b6146606040830185613717565b61466d60608301846144e6565b95945050505050565b600060a08201905061468b6000830188613553565b61469860208301876144c8565b81810360408301526146aa8186613889565b905081810360608301526146be818561374c565b90506146cd60808301846144c8565b9695505050505050565b600060a0820190506146ec6000830188613553565b6146f960208301876144c8565b818103604083015261470b8186613934565b9050818103606083015261471f81856137be565b905061472e60808301846144c8565b9695505050505050565b600060808201905081810360008301526147528187613562565b9050818103602083015261476681866136aa565b9050818103604083015261477a8185613635565b9050818103606083015261478e81846135c0565b905095945050505050565b60006020820190506147ae6000830184613726565b92915050565b60006080820190506147c96000830187613726565b6147d66020830186613726565b6147e360408301856144c8565b6147f06060830184613553565b95945050505050565b600060608201905061480e6000830186613726565b61481b60208301856144c8565b6148286040830184613717565b949350505050565b60006080820190506148456000830187613726565b61485260208301866144d7565b61485f6040830185613726565b61486c6060830184613726565b95945050505050565b600060208201905061488a600083018461384d565b92915050565b60006020820190506148a5600083018461385c565b92915050565b60006020820190506148c0600083018461386b565b92915050565b600060208201905081810360008301526148e081846138fb565b905092915050565b60006020820190508181036000830152614901816139c3565b9050919050565b6000602082019050818103600083015261492181613a29565b9050919050565b6000602082019050818103600083015261494181613ab5565b9050919050565b6000602082019050818103600083015261496181613b81565b9050919050565b6000602082019050818103600083015261498181613c4d565b9050919050565b600060208201905081810360008301526149a181613cb3565b9050919050565b600060208201905081810360008301526149c181613d19565b9050919050565b600060208201905081810360008301526149e181613da5565b9050919050565b60006020820190508181036000830152614a0181613e31565b9050919050565b60006020820190508181036000830152614a2181613e97565b9050919050565b60006020820190508181036000830152614a4181613fc9565b9050919050565b60006020820190508181036000830152614a6181614055565b9050919050565b60006020820190508181036000830152614a81816140bb565b9050919050565b60006020820190508181036000830152614aa181614147565b9050919050565b60006020820190508181036000830152614ac1816141ad565b9050919050565b60006020820190508181036000830152614ae181614213565b9050919050565b60006020820190508181036000830152614b0181614279565b9050919050565b60006020820190508181036000830152614b2181614305565b9050919050565b60006020820190508181036000830152614b418161436b565b9050919050565b60006020820190508181036000830152614b61816143d1565b9050919050565b60006020820190508181036000830152614b8181614411565b9050919050565b6000606082019050614b9d6000830184614477565b92915050565b6000602082019050614bb860008301846144c8565b92915050565b600061012082019050614bd4600083018c6144c8565b614be1602083018b613535565b8181036040830152614bf3818a613562565b90508181036060830152614c0781896136aa565b90508181036080830152614c1b8188613635565b905081810360a0830152614c2f81876135c0565b9050614c3e60c08301866144c8565b614c4b60e08301856144c8565b818103610100830152614c5e8184613889565b90509a9950505050505050505050565b600061012082019050614c84600083018c6144c8565b614c91602083018b613553565b614c9e604083018a6144c8565b614cab60608301896144c8565b614cb860808301886144c8565b614cc560a08301876144c8565b614cd260c08301866144c8565b614cdf60e0830185613717565b614ced610100830184613717565b9a9950505050505050505050565b6000604082019050614d1060008301856144c8565b614d1d60208301846144c8565b9392505050565b6000604051905081810181811067ffffffffffffffff82111715614d4757600080fd5b8060405250919050565b600067ffffffffffffffff821115614d6857600080fd5b602082029050602081019050919050565b600067ffffffffffffffff821115614d9057600080fd5b602082029050602081019050919050565b600067ffffffffffffffff821115614db857600080fd5b602082029050602081019050919050565b600067ffffffffffffffff821115614de057600080fd5b602082029050602081019050919050565b600067ffffffffffffffff821115614e0857600080fd5b601f19601f8301169050602081019050919050565b600067ffffffffffffffff821115614e3457600080fd5b601f19601f8301169050602081019050919050565b600067ffffffffffffffff821115614e6057600080fd5b601f19601f8301169050602081019050919050565b600067ffffffffffffffff821115614e8c57600080fd5b601f19601f8301169050602081019050919050565b6000819050602082019050919050565b6000819050602082019050919050565b6000819050602082019050919050565b6000819050602082019050919050565b60008190508160005260206000209050919050565b60008190508160005260206000209050919050565b600081519050919050565b600081519050919050565b600081519050919050565b600081519050919050565b600081519050919050565b600081519050919050565b600081519050919050565b600081519050919050565b6000602082019050919050565b6000602082019050919050565b6000602082019050919050565b6000602082019050919050565b600082825260208201905092915050565b600082825260208201905092915050565b600082825260208201905092915050565b600082825260208201905092915050565b600082825260208201905092915050565b600082825260208201905092915050565b600082825260208201905092915050565b600082825260208201905092915050565b600081905092915050565b600061503582615065565b9050919050565b60008115159050919050565b6000819050919050565b6000819050615060826151c5565b919050565b600073ffffffffffffffffffffffffffffffffffffffff82169050919050565b6000819050919050565b600060ff82169050919050565b60006bffffffffffffffffffffffff82169050919050565b60006150bf82615132565b9050919050565b60006150d1826150d8565b9050919050565b60006150e382615065565b9050919050565b60006150f5826150fc565b9050919050565b600061510782615065565b9050919050565b600061511982615052565b9050919050565b600061512b82615085565b9050919050565b600061513d82615144565b9050919050565b600061514f82615065565b9050919050565b60006151618261509c565b9050919050565b82818337600083830152505050565b60005b8381101561519557808201518184015260208101905061517a565b838111156151a4576000848401525b50505050565b6000819050919050565b6000601f19601f8301169050919050565b600881106151cf57fe5b50565b6151db8161502a565b81146151e657600080fd5b50565b6151f28161503c565b81146151fd57600080fd5b50565b61520981615048565b811461521457600080fd5b50565b61522081615085565b811461522b57600080fd5b50565b6152378161508f565b811461524257600080fd5b50565b61524e8161509c565b811461525957600080fd5b5056fea365627a7a723158206900996c113852c587719e64320f86d52423301724ae71b8a2a03bf97d46f9646c6578706572696d656e74616cf564736f6c63430005100040",
  "devdoc": {
    "methods": {}
  },
  "userdoc": {
    "methods": {
      "proposalMaxOperations()": {
        "notice": "The maximum number of actions that can be included in a proposal"
      },
      "proposalThreshold()": {
        "notice": "The number of votes required in order for a voter to become a proposer"
      },
      "quorumVotes()": {
        "notice": "The number of votes in support of a proposal required in order for a quorum to be reached and for a vote to succeed"
      },
      "votingDelay()": {
        "notice": "The delay before voting on a proposal may take place, once proposed"
      },
      "votingPeriod()": {
        "notice": "The duration of voting on a proposal, in blocks"
      }
    }
  },
  "storageLayout": {
    "storage": [
      {
        "astId": 1006,
        "contract": "contracts/GovernorAlpha.sol:GovernorAlpha",
        "label": "timelock",
        "offset": 0,
        "slot": "0",
        "type": "t_contract(TimelockInterface)2192"
      },
      {
        "astId": 1008,
        "contract": "contracts/GovernorAlpha.sol:GovernorAlpha",
        "label": "BTRUST",
        "offset": 0,
        "slot": "1",
        "type": "t_contract(BTRUSTInterface)2202"
      },
      {
        "astId": 1010,
        "contract": "contracts/GovernorAlpha.sol:GovernorAlpha",
        "label": "guardian",
        "offset": 0,
        "slot": "2",
        "type": "t_address"
      },
      {
        "astId": 1012,
        "contract": "contracts/GovernorAlpha.sol:GovernorAlpha",
        "label": "proposalCount",
        "offset": 0,
        "slot": "3",
        "type": "t_uint256"
      },
      {
        "astId": 1067,
        "contract": "contracts/GovernorAlpha.sol:GovernorAlpha",
        "label": "proposals",
        "offset": 0,
        "slot": "4",
        "type": "t_mapping(t_uint256,t_struct(Proposal)1047_storage)"
      },
      {
        "astId": 1071,
        "contract": "contracts/GovernorAlpha.sol:GovernorAlpha",
        "label": "latestProposalIds",
        "offset": 0,
        "slot": "5",
        "type": "t_mapping(t_address,t_uint256)"
      }
    ],
    "types": {
      "t_address": {
        "encoding": "inplace",
        "label": "address",
        "numberOfBytes": "20"
      },
      "t_array(t_address)dyn_storage": {
        "base": "t_address",
        "encoding": "dynamic_array",
        "label": "address[]",
        "numberOfBytes": "32"
      },
      "t_array(t_bytes_storage)dyn_storage": {
        "base": "t_bytes_storage",
        "encoding": "dynamic_array",
        "label": "bytes[]",
        "numberOfBytes": "32"
      },
      "t_array(t_string_storage)dyn_storage": {
        "base": "t_string_storage",
        "encoding": "dynamic_array",
        "label": "string[]",
        "numberOfBytes": "32"
      },
      "t_array(t_uint256)dyn_storage": {
        "base": "t_uint256",
        "encoding": "dynamic_array",
        "label": "uint256[]",
        "numberOfBytes": "32"
      },
      "t_bool": {
        "encoding": "inplace",
        "label": "bool",
        "numberOfBytes": "1"
      },
      "t_bytes_storage": {
        "encoding": "bytes",
        "label": "bytes",
        "numberOfBytes": "32"
      },
      "t_contract(BTRUSTInterface)2202": {
        "encoding": "inplace",
        "label": "contract BTRUSTInterface",
        "numberOfBytes": "20"
      },
      "t_contract(TimelockInterface)2192": {
        "encoding": "inplace",
        "label": "contract TimelockInterface",
        "numberOfBytes": "20"
      },
      "t_mapping(t_address,t_struct(Receipt)1054_storage)": {
        "encoding": "mapping",
        "key": "t_address",
        "label": "mapping(address => struct GovernorAlpha.Receipt)",
        "numberOfBytes": "32",
        "value": "t_struct(Receipt)1054_storage"
      },
      "t_mapping(t_address,t_uint256)": {
        "encoding": "mapping",
        "key": "t_address",
        "label": "mapping(address => uint256)",
        "numberOfBytes": "32",
        "value": "t_uint256"
      },
      "t_mapping(t_uint256,t_struct(Proposal)1047_storage)": {
        "encoding": "mapping",
        "key": "t_uint256",
        "label": "mapping(uint256 => struct GovernorAlpha.Proposal)",
        "numberOfBytes": "32",
        "value": "t_struct(Proposal)1047_storage"
      },
      "t_string_storage": {
        "encoding": "bytes",
        "label": "string",
        "numberOfBytes": "32"
      },
      "t_struct(Proposal)1047_storage": {
        "encoding": "inplace",
        "label": "struct GovernorAlpha.Proposal",
        "members": [
          {
            "astId": 1014,
            "contract": "contracts/GovernorAlpha.sol:GovernorAlpha",
            "label": "id",
            "offset": 0,
            "slot": "0",
            "type": "t_uint256"
          },
          {
            "astId": 1016,
            "contract": "contracts/GovernorAlpha.sol:GovernorAlpha",
            "label": "proposer",
            "offset": 0,
            "slot": "1",
            "type": "t_address"
          },
          {
            "astId": 1018,
            "contract": "contracts/GovernorAlpha.sol:GovernorAlpha",
            "label": "eta",
            "offset": 0,
            "slot": "2",
            "type": "t_uint256"
          },
          {
            "astId": 1021,
            "contract": "contracts/GovernorAlpha.sol:GovernorAlpha",
            "label": "targets",
            "offset": 0,
            "slot": "3",
            "type": "t_array(t_address)dyn_storage"
          },
          {
            "astId": 1024,
            "contract": "contracts/GovernorAlpha.sol:GovernorAlpha",
            "label": "values",
            "offset": 0,
            "slot": "4",
            "type": "t_array(t_uint256)dyn_storage"
          },
          {
            "astId": 1027,
            "contract": "contracts/GovernorAlpha.sol:GovernorAlpha",
            "label": "signatures",
            "offset": 0,
            "slot": "5",
            "type": "t_array(t_string_storage)dyn_storage"
          },
          {
            "astId": 1030,
            "contract": "contracts/GovernorAlpha.sol:GovernorAlpha",
            "label": "calldatas",
            "offset": 0,
            "slot": "6",
            "type": "t_array(t_bytes_storage)dyn_storage"
          },
          {
            "astId": 1032,
            "contract": "contracts/GovernorAlpha.sol:GovernorAlpha",
            "label": "startBlock",
            "offset": 0,
            "slot": "7",
            "type": "t_uint256"
          },
          {
            "astId": 1034,
            "contract": "contracts/GovernorAlpha.sol:GovernorAlpha",
            "label": "endBlock",
            "offset": 0,
            "slot": "8",
            "type": "t_uint256"
          },
          {
            "astId": 1036,
            "contract": "contracts/GovernorAlpha.sol:GovernorAlpha",
            "label": "forVotes",
            "offset": 0,
            "slot": "9",
            "type": "t_uint256"
          },
          {
            "astId": 1038,
            "contract": "contracts/GovernorAlpha.sol:GovernorAlpha",
            "label": "againstVotes",
            "offset": 0,
            "slot": "10",
            "type": "t_uint256"
          },
          {
            "astId": 1040,
            "contract": "contracts/GovernorAlpha.sol:GovernorAlpha",
            "label": "canceled",
            "offset": 0,
            "slot": "11",
            "type": "t_bool"
          },
          {
            "astId": 1042,
            "contract": "contracts/GovernorAlpha.sol:GovernorAlpha",
            "label": "executed",
            "offset": 1,
            "slot": "11",
            "type": "t_bool"
          },
          {
            "astId": 1046,
            "contract": "contracts/GovernorAlpha.sol:GovernorAlpha",
            "label": "receipts",
            "offset": 0,
            "slot": "12",
            "type": "t_mapping(t_address,t_struct(Receipt)1054_storage)"
          }
        ],
        "numberOfBytes": "416"
      },
      "t_struct(Receipt)1054_storage": {
        "encoding": "inplace",
        "label": "struct GovernorAlpha.Receipt",
        "members": [
          {
            "astId": 1049,
            "contract": "contracts/GovernorAlpha.sol:GovernorAlpha",
            "label": "hasVoted",
            "offset": 0,
            "slot": "0",
            "type": "t_bool"
          },
          {
            "astId": 1051,
            "contract": "contracts/GovernorAlpha.sol:GovernorAlpha",
            "label": "support",
            "offset": 1,
            "slot": "0",
            "type": "t_bool"
          },
          {
            "astId": 1053,
            "contract": "contracts/GovernorAlpha.sol:GovernorAlpha",
            "label": "votes",
            "offset": 2,
            "slot": "0",
            "type": "t_uint96"
          }
        ],
        "numberOfBytes": "32"
      },
      "t_uint256": {
        "encoding": "inplace",
        "label": "uint256",
        "numberOfBytes": "32"
      },
      "t_uint96": {
        "encoding": "inplace",
        "label": "uint96",
        "numberOfBytes": "12"
      }
    }
  }
}