{
  "address": "0x2349E4DaFFa5F78E2cb4Ff46FBB193d614230Dc7",
  "abi": [
    {
      "inputs": [
        {
          "internalType": "address",
          "name": "governor_",
          "type": "address"
        }
      ],
      "stateMutability": "nonpayable",
      "type": "constructor"
    },
    {
      "anonymous": false,
      "inputs": [
        {
          "indexed": false,
          "internalType": "string",
          "name": "category",
          "type": "string"
        }
      ],
      "name": "MarketplaceCategoryAdded",
      "type": "event"
    },
    {
      "anonymous": false,
      "inputs": [
        {
          "indexed": false,
          "internalType": "uint8",
          "name": "oldFee",
          "type": "uint8"
        },
        {
          "indexed": false,
          "internalType": "uint8",
          "name": "newFee",
          "type": "uint8"
        }
      ],
      "name": "MarketplaceFeeChanged",
      "type": "event"
    },
    {
      "anonymous": false,
      "inputs": [
        {
          "indexed": false,
          "internalType": "string",
          "name": "member",
          "type": "string"
        }
      ],
      "name": "MemberAdded",
      "type": "event"
    },
    {
      "anonymous": false,
      "inputs": [
        {
          "indexed": true,
          "internalType": "bytes32",
          "name": "role",
          "type": "bytes32"
        },
        {
          "indexed": true,
          "internalType": "bytes32",
          "name": "previousAdminRole",
          "type": "bytes32"
        },
        {
          "indexed": true,
          "internalType": "bytes32",
          "name": "newAdminRole",
          "type": "bytes32"
        }
      ],
      "name": "RoleAdminChanged",
      "type": "event"
    },
    {
      "anonymous": false,
      "inputs": [
        {
          "indexed": true,
          "internalType": "bytes32",
          "name": "role",
          "type": "bytes32"
        },
        {
          "indexed": true,
          "internalType": "address",
          "name": "account",
          "type": "address"
        },
        {
          "indexed": true,
          "internalType": "address",
          "name": "sender",
          "type": "address"
        }
      ],
      "name": "RoleGranted",
      "type": "event"
    },
    {
      "anonymous": false,
      "inputs": [
        {
          "indexed": true,
          "internalType": "bytes32",
          "name": "role",
          "type": "bytes32"
        },
        {
          "indexed": true,
          "internalType": "address",
          "name": "account",
          "type": "address"
        },
        {
          "indexed": true,
          "internalType": "address",
          "name": "sender",
          "type": "address"
        }
      ],
      "name": "RoleRevoked",
      "type": "event"
    },
    {
      "inputs": [],
      "name": "DEFAULT_ADMIN_ROLE",
      "outputs": [
        {
          "internalType": "bytes32",
          "name": "",
          "type": "bytes32"
        }
      ],
      "stateMutability": "view",
      "type": "function"
    },
    {
      "inputs": [],
      "name": "GOVERNOR_ROLE",
      "outputs": [
        {
          "internalType": "bytes32",
          "name": "",
          "type": "bytes32"
        }
      ],
      "stateMutability": "view",
      "type": "function"
    },
    {
      "inputs": [
        {
          "internalType": "string",
          "name": "category",
          "type": "string"
        }
      ],
      "name": "addMarketplaceCategory",
      "outputs": [],
      "stateMutability": "nonpayable",
      "type": "function"
    },
    {
      "inputs": [
        {
          "internalType": "string",
          "name": "member",
          "type": "string"
        }
      ],
      "name": "addMember",
      "outputs": [],
      "stateMutability": "nonpayable",
      "type": "function"
    },
    {
      "inputs": [],
      "name": "getMarketplaceCategories",
      "outputs": [
        {
          "internalType": "string[]",
          "name": "",
          "type": "string[]"
        }
      ],
      "stateMutability": "view",
      "type": "function"
    },
    {
      "inputs": [],
      "name": "getMemberships",
      "outputs": [
        {
          "internalType": "string[]",
          "name": "",
          "type": "string[]"
        }
      ],
      "stateMutability": "view",
      "type": "function"
    },
    {
      "inputs": [
        {
          "internalType": "bytes32",
          "name": "role",
          "type": "bytes32"
        }
      ],
      "name": "getRoleAdmin",
      "outputs": [
        {
          "internalType": "bytes32",
          "name": "",
          "type": "bytes32"
        }
      ],
      "stateMutability": "view",
      "type": "function"
    },
    {
      "inputs": [
        {
          "internalType": "bytes32",
          "name": "role",
          "type": "bytes32"
        },
        {
          "internalType": "uint256",
          "name": "index",
          "type": "uint256"
        }
      ],
      "name": "getRoleMember",
      "outputs": [
        {
          "internalType": "address",
          "name": "",
          "type": "address"
        }
      ],
      "stateMutability": "view",
      "type": "function"
    },
    {
      "inputs": [
        {
          "internalType": "bytes32",
          "name": "role",
          "type": "bytes32"
        }
      ],
      "name": "getRoleMemberCount",
      "outputs": [
        {
          "internalType": "uint256",
          "name": "",
          "type": "uint256"
        }
      ],
      "stateMutability": "view",
      "type": "function"
    },
    {
      "inputs": [
        {
          "internalType": "bytes32",
          "name": "role",
          "type": "bytes32"
        },
        {
          "internalType": "address",
          "name": "account",
          "type": "address"
        }
      ],
      "name": "grantRole",
      "outputs": [],
      "stateMutability": "nonpayable",
      "type": "function"
    },
    {
      "inputs": [
        {
          "internalType": "bytes32",
          "name": "role",
          "type": "bytes32"
        },
        {
          "internalType": "address",
          "name": "account",
          "type": "address"
        }
      ],
      "name": "hasRole",
      "outputs": [
        {
          "internalType": "bool",
          "name": "",
          "type": "bool"
        }
      ],
      "stateMutability": "view",
      "type": "function"
    },
    {
      "inputs": [],
      "name": "marketplaceFee",
      "outputs": [
        {
          "internalType": "uint8",
          "name": "",
          "type": "uint8"
        }
      ],
      "stateMutability": "view",
      "type": "function"
    },
    {
      "inputs": [
        {
          "internalType": "bytes32",
          "name": "role",
          "type": "bytes32"
        },
        {
          "internalType": "address",
          "name": "account",
          "type": "address"
        }
      ],
      "name": "renounceRole",
      "outputs": [],
      "stateMutability": "nonpayable",
      "type": "function"
    },
    {
      "inputs": [
        {
          "internalType": "bytes32",
          "name": "role",
          "type": "bytes32"
        },
        {
          "internalType": "address",
          "name": "account",
          "type": "address"
        }
      ],
      "name": "revokeRole",
      "outputs": [],
      "stateMutability": "nonpayable",
      "type": "function"
    },
    {
      "inputs": [
        {
          "internalType": "uint8",
          "name": "fee",
          "type": "uint8"
        }
      ],
      "name": "setMarketplaceFee",
      "outputs": [],
      "stateMutability": "nonpayable",
      "type": "function"
    }
  ],
  "transactionHash": "0x023472f38b8e86a1c63e7ceff5c7c5405db56d172b423161da9b2ec53565e60b",
  "args": [
    "0x5F455ca427659463EA16d923DE4A51D35Ec19968"
  ],
  "solcInputHash": "814f20c5fd54c9265d284199841def6f",
  "bytecode": "0x60806040523480156200001157600080fd5b5060405162001a8738038062001a8783398181016040528101906200003791906200022d565b6200005e60405162000049906200029b565b6040518091039020826200008060201b60201c565b60018060006101000a81548160ff021916908360ff160217905550506200030b565b6200009282826200009660201b60201c565b5050565b620000c4816000808581526020019081526020016000206000016200013960201b62000b631790919060201c565b156200013557620000da6200017160201b60201c565b73ffffffffffffffffffffffffffffffffffffffff168173ffffffffffffffffffffffffffffffffffffffff16837f2f8788117e7eff1d82e926ec794901d17c78024a50270940304540a733656f0d60405160405180910390a45b5050565b600062000169836000018373ffffffffffffffffffffffffffffffffffffffff1660001b6200017960201b60201c565b905092915050565b600033905090565b60006200018d8383620001f360201b60201c565b620001e8578260000182908060018154018082558091505060019003906000526020600020016000909190919091505582600001805490508360010160008481526020019081526020016000208190555060019050620001ed565b600090505b92915050565b600080836001016000848152602001908152602001600020541415905092915050565b6000815190506200022781620002f1565b92915050565b6000602082840312156200024057600080fd5b6000620002508482850162000216565b91505092915050565b600062000268600d83620002b2565b91507f474f5645524e4f525f524f4c45000000000000000000000000000000000000006000830152600d82019050919050565b6000620002a88262000259565b9150819050919050565b600081905092915050565b6000620002ca82620002d1565b9050919050565b600073ffffffffffffffffffffffffffffffffffffffff82169050919050565b620002fc81620002bd565b81146200030857600080fd5b50565b61176c806200031b6000396000f3fe608060405234801561001057600080fd5b50600436106100f55760003560e01c80637840c6a411610097578063a217fddf11610066578063a217fddf14610270578063ca15c8731461028e578063ccc57490146102be578063d547741f146102dc576100f5565b80637840c6a4146101d65780639010d07c146101f4578063918f96871461022457806391d1485414610240576100f5565b806336568abe116100d357806336568abe146101625780634320a9881461017e5780636a1669641461019a57806375945ce8146101b8576100f5565b80631c55b8f8146100fa578063248a9ca3146101165780632f2ff15d14610146575b600080fd5b610114600480360381019061010f9190610fe5565b6102f8565b005b610130600480360381019061012b9190610eff565b610415565b60405161013d9190611459565b60405180910390f35b610160600480360381019061015b9190610f28565b610434565b005b61017c60048036038101906101779190610f28565b6104a7565b005b61019860048036038101906101939190610fa0565b61052a565b005b6101a2610601565b6040516101af9190611573565b60405180910390f35b6101c0610614565b6040516101cd919061141c565b60405180910390f35b6101de6106fd565b6040516101eb919061141c565b60405180910390f35b61020e60048036038101906102099190610f64565b6107e6565b60405161021b9190611401565b60405180910390f35b61023e60048036038101906102399190610fa0565b610817565b005b61025a60048036038101906102559190610f28565b6108ee565b604051610267919061143e565b60405180910390f35b61027861091f565b6040516102859190611459565b60405180910390f35b6102a860048036038101906102a39190610eff565b610926565b6040516102b59190611558565b60405180910390f35b6102c661094c565b6040516102d39190611459565b60405180910390f35b6102f660048036038101906102f19190610f28565b610963565b005b610315604051610307906113ec565b6040518091039020336108ee565b610354576040517f08c379a000000000000000000000000000000000000000000000000000000000815260040161034b90611518565b60405180910390fd5b60648160ff161061039a576040517f08c379a0000000000000000000000000000000000000000000000000000000008152600401610391906114d8565b60405180910390fd5b6000600160009054906101000a900460ff16905081600160006101000a81548160ff021916908360ff1602179055507faf709979f6761875a7de96a106eb2d77e9a5653f6d6fffd45730779efe5012d881600160009054906101000a900460ff1660405161040992919061158e565b60405180910390a15050565b6000806000838152602001908152602001600020600201549050919050565b61045a600080848152602001908152602001600020600201546104556109d6565b6108ee565b610499576040517f08c379a0000000000000000000000000000000000000000000000000000000008152600401610490906114b8565b60405180910390fd5b6104a382826109de565b5050565b6104af6109d6565b73ffffffffffffffffffffffffffffffffffffffff168173ffffffffffffffffffffffffffffffffffffffff161461051c576040517f08c379a000000000000000000000000000000000000000000000000000000000815260040161051390611538565b60405180910390fd5b6105268282610a71565b5050565b610547604051610539906113ec565b6040518091039020336108ee565b610586576040517f08c379a000000000000000000000000000000000000000000000000000000000815260040161057d90611518565b60405180910390fd5b60028282909180600181540180825580915050600190039060005260206000200160009091929091929091929091925091906105c3929190610dbc565b507fc2f8365fcbdb8943fca7627eeb06d2c090b1f5300bb61f2bc1bde607b59ab97182826040516105f5929190611474565b60405180910390a15050565b600160009054906101000a900460ff1681565b60606002805480602002602001604051908101604052809291908181526020016000905b828210156106f4578382906000526020600020018054600181600116156101000203166002900480601f0160208091040260200160405190810160405280929190818152602001828054600181600116156101000203166002900480156106e05780601f106106b5576101008083540402835291602001916106e0565b820191906000526020600020905b8154815290600101906020018083116106c357829003601f168201915b505050505081526020019060010190610638565b50505050905090565b60606003805480602002602001604051908101604052809291908181526020016000905b828210156107dd578382906000526020600020018054600181600116156101000203166002900480601f0160208091040260200160405190810160405280929190818152602001828054600181600116156101000203166002900480156107c95780601f1061079e576101008083540402835291602001916107c9565b820191906000526020600020905b8154815290600101906020018083116107ac57829003601f168201915b505050505081526020019060010190610721565b50505050905090565b600061080f82600080868152602001908152602001600020600001610b0490919063ffffffff16565b905092915050565b610834604051610826906113ec565b6040518091039020336108ee565b610873576040517f08c379a000000000000000000000000000000000000000000000000000000000815260040161086a90611518565b60405180910390fd5b60038282909180600181540180825580915050600190039060005260206000200160009091929091929091929091925091906108b0929190610dbc565b507fdfaa3c24567cbffbf024ddfd8dfca7a224b307e94b0df5437facad0f2fea2f9b82826040516108e2929190611474565b60405180910390a15050565b600061091782600080868152602001908152602001600020600001610b1e90919063ffffffff16565b905092915050565b6000801b81565b6000610945600080848152602001908152602001600020600001610b4e565b9050919050565b604051610958906113ec565b604051809103902081565b610989600080848152602001908152602001600020600201546109846109d6565b6108ee565b6109c8576040517f08c379a00000000000000000000000000000000000000000000000000000000081526004016109bf906114f8565b60405180910390fd5b6109d28282610a71565b5050565b600033905090565b610a0581600080858152602001908152602001600020600001610b6390919063ffffffff16565b15610a6d57610a126109d6565b73ffffffffffffffffffffffffffffffffffffffff168173ffffffffffffffffffffffffffffffffffffffff16837f2f8788117e7eff1d82e926ec794901d17c78024a50270940304540a733656f0d60405160405180910390a45b5050565b610a9881600080858152602001908152602001600020600001610b9390919063ffffffff16565b15610b0057610aa56109d6565b73ffffffffffffffffffffffffffffffffffffffff168173ffffffffffffffffffffffffffffffffffffffff16837ff6391f5c32d9c69d2a47ea670b442974b53935d1edc7fd64eb21e047a839171b60405160405180910390a45b5050565b6000610b138360000183610bc3565b60001c905092915050565b6000610b46836000018373ffffffffffffffffffffffffffffffffffffffff1660001b610c30565b905092915050565b6000610b5c82600001610c53565b9050919050565b6000610b8b836000018373ffffffffffffffffffffffffffffffffffffffff1660001b610c64565b905092915050565b6000610bbb836000018373ffffffffffffffffffffffffffffffffffffffff1660001b610cd4565b905092915050565b600081836000018054905011610c0e576040517f08c379a0000000000000000000000000000000000000000000000000000000008152600401610c0590611498565b60405180910390fd5b826000018281548110610c1d57fe5b9060005260206000200154905092915050565b600080836001016000848152602001908152602001600020541415905092915050565b600081600001805490509050919050565b6000610c708383610c30565b610cc9578260000182908060018154018082558091505060019003906000526020600020016000909190919091505582600001805490508360010160008481526020019081526020016000208190555060019050610cce565b600090505b92915050565b60008083600101600084815260200190815260200160002054905060008114610db05760006001820390506000600186600001805490500390506000866000018281548110610d1f57fe5b9060005260206000200154905080876000018481548110610d3c57fe5b9060005260206000200181905550600183018760010160008381526020019081526020016000208190555086600001805480610d7457fe5b60019003818190600052602060002001600090559055866001016000878152602001908152602001600020600090556001945050505050610db6565b60009150505b92915050565b828054600181600116156101000203166002900490600052602060002090601f016020900481019282601f10610dfd57803560ff1916838001178555610e2b565b82800160010185558215610e2b579182015b82811115610e2a578235825591602001919060010190610e0f565b5b509050610e389190610e3c565b5090565b610e5e91905b80821115610e5a576000816000905550600101610e42565b5090565b90565b600081359050610e70816116da565b92915050565b600081359050610e85816116f1565b92915050565b60008083601f840112610e9d57600080fd5b8235905067ffffffffffffffff811115610eb657600080fd5b602083019150836001820283011115610ece57600080fd5b9250929050565b600081359050610ee481611708565b92915050565b600081359050610ef98161171f565b92915050565b600060208284031215610f1157600080fd5b6000610f1f84828501610e76565b91505092915050565b60008060408385031215610f3b57600080fd5b6000610f4985828601610e76565b9250506020610f5a85828601610e61565b9150509250929050565b60008060408385031215610f7757600080fd5b6000610f8585828601610e76565b9250506020610f9685828601610ed5565b9150509250929050565b60008060208385031215610fb357600080fd5b600083013567ffffffffffffffff811115610fcd57600080fd5b610fd985828601610e8b565b92509250509250929050565b600060208284031215610ff757600080fd5b600061100584828501610eea565b91505092915050565b600061101a83836110f1565b905092915050565b61102b81611628565b82525050565b600061103c826115c7565b61104681856115ea565b935083602082028501611058856115b7565b8060005b858110156110945784840389528151611075858261100e565b9450611080836115dd565b925060208a0199505060018101905061105c565b50829750879550505050505092915050565b6110af8161163a565b82525050565b6110be81611646565b82525050565b60006110d0838561160c565b93506110dd838584611687565b6110e6836116c9565b840190509392505050565b60006110fc826115d2565b61110681856115fb565b9350611116818560208601611696565b61111f816116c9565b840191505092915050565b600061113760228361160c565b91507f456e756d657261626c655365743a20696e646578206f7574206f6620626f756e60008301527f64730000000000000000000000000000000000000000000000000000000000006020830152604082019050919050565b600061119d602f8361160c565b91507f416363657373436f6e74726f6c3a2073656e646572206d75737420626520616e60008301527f2061646d696e20746f206772616e7400000000000000000000000000000000006020830152604082019050919050565b6000611203603a8361160c565b91507f4465636973696f6e4d6f64656c3a3a7365744d61726b6574706c61636546656560008301527f20666565206d757374206265206c657373207468616e203130300000000000006020830152604082019050919050565b600061126960308361160c565b91507f416363657373436f6e74726f6c3a2073656e646572206d75737420626520616e60008301527f2061646d696e20746f207265766f6b65000000000000000000000000000000006020830152604082019050919050565b60006112cf60318361160c565b91507f4465636973696f6e4d6f64656c3a3a7365744d61726b6574706c61636546656560008301527f2041434345535320464f5242494444454e0000000000000000000000000000006020830152604082019050919050565b6000611335600d8361161d565b91507f474f5645524e4f525f524f4c45000000000000000000000000000000000000006000830152600d82019050919050565b6000611375602f8361160c565b91507f416363657373436f6e74726f6c3a2063616e206f6e6c792072656e6f756e636560008301527f20726f6c657320666f722073656c6600000000000000000000000000000000006020830152604082019050919050565b6113d781611670565b82525050565b6113e68161167a565b82525050565b60006113f782611328565b9150819050919050565b60006020820190506114166000830184611022565b92915050565b600060208201905081810360008301526114368184611031565b905092915050565b600060208201905061145360008301846110a6565b92915050565b600060208201905061146e60008301846110b5565b92915050565b6000602082019050818103600083015261148f8184866110c4565b90509392505050565b600060208201905081810360008301526114b18161112a565b9050919050565b600060208201905081810360008301526114d181611190565b9050919050565b600060208201905081810360008301526114f1816111f6565b9050919050565b600060208201905081810360008301526115118161125c565b9050919050565b60006020820190508181036000830152611531816112c2565b9050919050565b6000602082019050818103600083015261155181611368565b9050919050565b600060208201905061156d60008301846113ce565b92915050565b600060208201905061158860008301846113dd565b92915050565b60006040820190506115a360008301856113dd565b6115b060208301846113dd565b9392505050565b6000819050602082019050919050565b600081519050919050565b600081519050919050565b6000602082019050919050565b600082825260208201905092915050565b600082825260208201905092915050565b600082825260208201905092915050565b600081905092915050565b600061163382611650565b9050919050565b60008115159050919050565b6000819050919050565b600073ffffffffffffffffffffffffffffffffffffffff82169050919050565b6000819050919050565b600060ff82169050919050565b82818337600083830152505050565b60005b838110156116b4578082015181840152602081019050611699565b838111156116c3576000848401525b50505050565b6000601f19601f8301169050919050565b6116e381611628565b81146116ee57600080fd5b50565b6116fa81611646565b811461170557600080fd5b50565b61171181611670565b811461171c57600080fd5b50565b6117288161167a565b811461173357600080fd5b5056fea264697066735822122079be62f10ecdd06c5589be95b57f436a6f5bed0fb164f78426ed7b805adccb2a64736f6c63430006070033",
  "devdoc": {
    "methods": {
      "getRoleAdmin(bytes32)": {
        "details": "Returns the admin role that controls `role`. See {grantRole} and {revokeRole}.     * To change a role's admin, use {_setRoleAdmin}."
      },
      "getRoleMember(bytes32,uint256)": {
        "details": "Returns one of the accounts that have `role`. `index` must be a value between 0 and {getRoleMemberCount}, non-inclusive.     * Role bearers are not sorted in any particular way, and their ordering may change at any point.     * WARNING: When using {getRoleMember} and {getRoleMemberCount}, make sure you perform all queries on the same block. See the following https://forum.openzeppelin.com/t/iterating-over-elements-on-enumerableset-in-openzeppelin-contracts/2296[forum post] for more information."
      },
      "getRoleMemberCount(bytes32)": {
        "details": "Returns the number of accounts that have `role`. Can be used together with {getRoleMember} to enumerate all bearers of a role."
      },
      "grantRole(bytes32,address)": {
        "details": "Grants `role` to `account`.     * If `account` had not been already granted `role`, emits a {RoleGranted} event.     * Requirements:     * - the caller must have ``role``'s admin role."
      },
      "hasRole(bytes32,address)": {
        "details": "Returns `true` if `account` has been granted `role`."
      },
      "renounceRole(bytes32,address)": {
        "details": "Revokes `role` from the calling account.     * Roles are often managed via {grantRole} and {revokeRole}: this function's purpose is to provide a mechanism for accounts to lose their privileges if they are compromised (such as when a trusted device is misplaced).     * If the calling account had been granted `role`, emits a {RoleRevoked} event.     * Requirements:     * - the caller must be `account`."
      },
      "revokeRole(bytes32,address)": {
        "details": "Revokes `role` from `account`.     * If `account` had been granted `role`, emits a {RoleRevoked} event.     * Requirements:     * - the caller must have ``role``'s admin role."
      }
    }
  },
  "userdoc": {
    "methods": {}
  },
  "storageLayout": {
    "storage": [
      {
        "astId": 22,
        "contract": "contracts/GovernanceDecisions.sol:GovernanceDecisions",
        "label": "_roles",
        "offset": 0,
        "slot": "0",
        "type": "t_mapping(t_bytes32,t_struct(RoleData)18_storage)"
      },
      {
        "astId": 1106,
        "contract": "contracts/GovernanceDecisions.sol:GovernanceDecisions",
        "label": "marketplaceFee",
        "offset": 0,
        "slot": "1",
        "type": "t_uint8"
      },
      {
        "astId": 1109,
        "contract": "contracts/GovernanceDecisions.sol:GovernanceDecisions",
        "label": "marketplaceCategories",
        "offset": 0,
        "slot": "2",
        "type": "t_array(t_string_storage)dyn_storage"
      },
      {
        "astId": 1112,
        "contract": "contracts/GovernanceDecisions.sol:GovernanceDecisions",
        "label": "memberships",
        "offset": 0,
        "slot": "3",
        "type": "t_array(t_string_storage)dyn_storage"
      }
    ],
    "types": {
      "t_array(t_bytes32)dyn_storage": {
        "base": "t_bytes32",
        "encoding": "dynamic_array",
        "label": "bytes32[]",
        "numberOfBytes": "32"
      },
      "t_array(t_string_storage)dyn_storage": {
        "base": "t_string_storage",
        "encoding": "dynamic_array",
        "label": "string[]",
        "numberOfBytes": "32"
      },
      "t_bytes32": {
        "encoding": "inplace",
        "label": "bytes32",
        "numberOfBytes": "32"
      },
      "t_mapping(t_bytes32,t_struct(RoleData)18_storage)": {
        "encoding": "mapping",
        "key": "t_bytes32",
        "label": "mapping(bytes32 => struct AccessControl.RoleData)",
        "numberOfBytes": "32",
        "value": "t_struct(RoleData)18_storage"
      },
      "t_mapping(t_bytes32,t_uint256)": {
        "encoding": "mapping",
        "key": "t_bytes32",
        "label": "mapping(bytes32 => uint256)",
        "numberOfBytes": "32",
        "value": "t_uint256"
      },
      "t_string_storage": {
        "encoding": "bytes",
        "label": "string",
        "numberOfBytes": "32"
      },
      "t_struct(AddressSet)877_storage": {
        "encoding": "inplace",
        "label": "struct EnumerableSet.AddressSet",
        "members": [
          {
            "astId": 876,
            "contract": "contracts/GovernanceDecisions.sol:GovernanceDecisions",
            "label": "_inner",
            "offset": 0,
            "slot": "0",
            "type": "t_struct(Set)612_storage"
          }
        ],
        "numberOfBytes": "64"
      },
      "t_struct(RoleData)18_storage": {
        "encoding": "inplace",
        "label": "struct AccessControl.RoleData",
        "members": [
          {
            "astId": 15,
            "contract": "contracts/GovernanceDecisions.sol:GovernanceDecisions",
            "label": "members",
            "offset": 0,
            "slot": "0",
            "type": "t_struct(AddressSet)877_storage"
          },
          {
            "astId": 17,
            "contract": "contracts/GovernanceDecisions.sol:GovernanceDecisions",
            "label": "adminRole",
            "offset": 0,
            "slot": "2",
            "type": "t_bytes32"
          }
        ],
        "numberOfBytes": "96"
      },
      "t_struct(Set)612_storage": {
        "encoding": "inplace",
        "label": "struct EnumerableSet.Set",
        "members": [
          {
            "astId": 607,
            "contract": "contracts/GovernanceDecisions.sol:GovernanceDecisions",
            "label": "_values",
            "offset": 0,
            "slot": "0",
            "type": "t_array(t_bytes32)dyn_storage"
          },
          {
            "astId": 611,
            "contract": "contracts/GovernanceDecisions.sol:GovernanceDecisions",
            "label": "_indexes",
            "offset": 0,
            "slot": "1",
            "type": "t_mapping(t_bytes32,t_uint256)"
          }
        ],
        "numberOfBytes": "64"
      },
      "t_uint256": {
        "encoding": "inplace",
        "label": "uint256",
        "numberOfBytes": "32"
      },
      "t_uint8": {
        "encoding": "inplace",
        "label": "uint8",
        "numberOfBytes": "1"
      }
    }
  }
}