{
  "address": "0xfa8d59923b9FF932948d4441077FfEb900baD204",
  "abi": [
    {
      "inputs": [
        {
          "internalType": "address",
          "name": "governor_",
          "type": "address"
        }
      ],
      "stateMutability": "nonpayable",
      "type": "constructor"
    },
    {
      "anonymous": false,
      "inputs": [
        {
          "indexed": false,
          "internalType": "string",
          "name": "member",
          "type": "string"
        }
      ],
      "name": "FoundationMemberAdded",
      "type": "event"
    },
    {
      "anonymous": false,
      "inputs": [
        {
          "indexed": false,
          "internalType": "string",
          "name": "category",
          "type": "string"
        }
      ],
      "name": "MarketplaceCategoryAdded",
      "type": "event"
    },
    {
      "anonymous": false,
      "inputs": [
        {
          "indexed": false,
          "internalType": "uint8",
          "name": "oldFee",
          "type": "uint8"
        },
        {
          "indexed": false,
          "internalType": "uint8",
          "name": "newFee",
          "type": "uint8"
        }
      ],
      "name": "MarketplaceFeeChanged",
      "type": "event"
    },
    {
      "anonymous": false,
      "inputs": [
        {
          "indexed": true,
          "internalType": "bytes32",
          "name": "role",
          "type": "bytes32"
        },
        {
          "indexed": true,
          "internalType": "bytes32",
          "name": "previousAdminRole",
          "type": "bytes32"
        },
        {
          "indexed": true,
          "internalType": "bytes32",
          "name": "newAdminRole",
          "type": "bytes32"
        }
      ],
      "name": "RoleAdminChanged",
      "type": "event"
    },
    {
      "anonymous": false,
      "inputs": [
        {
          "indexed": true,
          "internalType": "bytes32",
          "name": "role",
          "type": "bytes32"
        },
        {
          "indexed": true,
          "internalType": "address",
          "name": "account",
          "type": "address"
        },
        {
          "indexed": true,
          "internalType": "address",
          "name": "sender",
          "type": "address"
        }
      ],
      "name": "RoleGranted",
      "type": "event"
    },
    {
      "anonymous": false,
      "inputs": [
        {
          "indexed": true,
          "internalType": "bytes32",
          "name": "role",
          "type": "bytes32"
        },
        {
          "indexed": true,
          "internalType": "address",
          "name": "account",
          "type": "address"
        },
        {
          "indexed": true,
          "internalType": "address",
          "name": "sender",
          "type": "address"
        }
      ],
      "name": "RoleRevoked",
      "type": "event"
    },
    {
      "anonymous": false,
      "inputs": [],
      "name": "TesterAdded",
      "type": "event"
    },
    {
      "inputs": [],
      "name": "DEFAULT_ADMIN_ROLE",
      "outputs": [
        {
          "internalType": "bytes32",
          "name": "",
          "type": "bytes32"
        }
      ],
      "stateMutability": "view",
      "type": "function"
    },
    {
      "inputs": [],
      "name": "GOVERNOR_ROLE",
      "outputs": [
        {
          "internalType": "bytes32",
          "name": "",
          "type": "bytes32"
        }
      ],
      "stateMutability": "view",
      "type": "function"
    },
    {
      "inputs": [
        {
          "internalType": "string",
          "name": "member",
          "type": "string"
        }
      ],
      "name": "addFoundationMember",
      "outputs": [],
      "stateMutability": "nonpayable",
      "type": "function"
    },
    {
      "inputs": [
        {
          "internalType": "string",
          "name": "category",
          "type": "string"
        }
      ],
      "name": "addMarketplaceCategory",
      "outputs": [],
      "stateMutability": "nonpayable",
      "type": "function"
    },
    {
      "inputs": [
        {
          "internalType": "string",
          "name": "tester",
          "type": "string"
        }
      ],
      "name": "addTester",
      "outputs": [],
      "stateMutability": "nonpayable",
      "type": "function"
    },
    {
      "inputs": [],
      "name": "getMarketplaceCategories",
      "outputs": [
        {
          "internalType": "string[]",
          "name": "",
          "type": "string[]"
        }
      ],
      "stateMutability": "view",
      "type": "function"
    },
    {
      "inputs": [],
      "name": "getMemberships",
      "outputs": [
        {
          "internalType": "string[]",
          "name": "",
          "type": "string[]"
        }
      ],
      "stateMutability": "view",
      "type": "function"
    },
    {
      "inputs": [
        {
          "internalType": "bytes32",
          "name": "role",
          "type": "bytes32"
        }
      ],
      "name": "getRoleAdmin",
      "outputs": [
        {
          "internalType": "bytes32",
          "name": "",
          "type": "bytes32"
        }
      ],
      "stateMutability": "view",
      "type": "function"
    },
    {
      "inputs": [
        {
          "internalType": "bytes32",
          "name": "role",
          "type": "bytes32"
        },
        {
          "internalType": "uint256",
          "name": "index",
          "type": "uint256"
        }
      ],
      "name": "getRoleMember",
      "outputs": [
        {
          "internalType": "address",
          "name": "",
          "type": "address"
        }
      ],
      "stateMutability": "view",
      "type": "function"
    },
    {
      "inputs": [
        {
          "internalType": "bytes32",
          "name": "role",
          "type": "bytes32"
        }
      ],
      "name": "getRoleMemberCount",
      "outputs": [
        {
          "internalType": "uint256",
          "name": "",
          "type": "uint256"
        }
      ],
      "stateMutability": "view",
      "type": "function"
    },
    {
      "inputs": [
        {
          "internalType": "bytes32",
          "name": "role",
          "type": "bytes32"
        },
        {
          "internalType": "address",
          "name": "account",
          "type": "address"
        }
      ],
      "name": "grantRole",
      "outputs": [],
      "stateMutability": "nonpayable",
      "type": "function"
    },
    {
      "inputs": [
        {
          "internalType": "bytes32",
          "name": "role",
          "type": "bytes32"
        },
        {
          "internalType": "address",
          "name": "account",
          "type": "address"
        }
      ],
      "name": "hasRole",
      "outputs": [
        {
          "internalType": "bool",
          "name": "",
          "type": "bool"
        }
      ],
      "stateMutability": "view",
      "type": "function"
    },
    {
      "inputs": [],
      "name": "marketplaceFee",
      "outputs": [
        {
          "internalType": "uint8",
          "name": "",
          "type": "uint8"
        }
      ],
      "stateMutability": "view",
      "type": "function"
    },
    {
      "inputs": [
        {
          "internalType": "bytes32",
          "name": "role",
          "type": "bytes32"
        },
        {
          "internalType": "address",
          "name": "account",
          "type": "address"
        }
      ],
      "name": "renounceRole",
      "outputs": [],
      "stateMutability": "nonpayable",
      "type": "function"
    },
    {
      "inputs": [
        {
          "internalType": "bytes32",
          "name": "role",
          "type": "bytes32"
        },
        {
          "internalType": "address",
          "name": "account",
          "type": "address"
        }
      ],
      "name": "revokeRole",
      "outputs": [],
      "stateMutability": "nonpayable",
      "type": "function"
    },
    {
      "inputs": [
        {
          "internalType": "uint8",
          "name": "fee",
          "type": "uint8"
        }
      ],
      "name": "setMarketplaceFee",
      "outputs": [],
      "stateMutability": "nonpayable",
      "type": "function"
    }
  ],
  "transactionHash": "0x8c1ccc2e621fe548218c6ec884b113e892addfdd1d4ea7bf178542ce51c67e70",
  "args": [
    "0xa5cBd179CedF7433E1f57ac400dEE20119ddc719"
  ],
  "solcInputHash": "0b946528d7b92ef03565ee1f4997462c",
  "bytecode": "0x60806040523480156200001157600080fd5b5060405162001d0b38038062001d0b83398181016040528101906200003791906200022e565b6200005e60405162000049906200029c565b6040518091039020826200008160201b60201c565b600a600160006101000a81548160ff021916908360ff160217905550506200030c565b6200009382826200009760201b60201c565b5050565b620000c5816000808581526020019081526020016000206000016200013a60201b62000c541790919060201c565b156200013657620000db6200017260201b60201c565b73ffffffffffffffffffffffffffffffffffffffff168173ffffffffffffffffffffffffffffffffffffffff16837f2f8788117e7eff1d82e926ec794901d17c78024a50270940304540a733656f0d60405160405180910390a45b5050565b60006200016a836000018373ffffffffffffffffffffffffffffffffffffffff1660001b6200017a60201b60201c565b905092915050565b600033905090565b60006200018e8383620001f460201b60201c565b620001e9578260000182908060018154018082558091505060019003906000526020600020016000909190919091505582600001805490508360010160008481526020019081526020016000208190555060019050620001ee565b600090505b92915050565b600080836001016000848152602001908152602001600020541415905092915050565b6000815190506200022881620002f2565b92915050565b6000602082840312156200024157600080fd5b6000620002518482850162000217565b91505092915050565b600062000269600d83620002b3565b91507f474f5645524e4f525f524f4c45000000000000000000000000000000000000006000830152600d82019050919050565b6000620002a9826200025a565b9150819050919050565b600081905092915050565b6000620002cb82620002d2565b9050919050565b600073ffffffffffffffffffffffffffffffffffffffff82169050919050565b620002fd81620002be565b81146200030957600080fd5b50565b6119ef806200031c6000396000f3fe608060405234801561001057600080fd5b50600436106101005760003560e01c80637840c6a411610097578063ca15c87311610066578063ca15c87314610299578063ccc57490146102c9578063cd80dc8d146102e7578063d547741f1461030357610100565b80637840c6a4146101fd5780639010d07c1461021b57806391d148541461024b578063a217fddf1461027b57610100565b806339753fbe116100d357806339753fbe146101895780634320a988146101a55780636a166964146101c157806375945ce8146101df57610100565b80631c55b8f814610105578063248a9ca3146101215780632f2ff15d1461015157806336568abe1461016d575b600080fd5b61011f600480360381019061011a91906110d6565b61031f565b005b61013b60048036038101906101369190610ff0565b61043c565b604051610148919061167c565b60405180910390f35b61016b60048036038101906101669190611019565b61045b565b005b61018760048036038101906101829190611019565b6104ce565b005b6101a3600480360381019061019e9190611091565b610551565b005b6101bf60048036038101906101ba9190611091565b61061b565b005b6101c96106f2565b6040516101d691906117f6565b60405180910390f35b6101e7610705565b6040516101f4919061163f565b60405180910390f35b6102056107ee565b604051610212919061163f565b60405180910390f35b61023560048036038101906102309190611055565b6108d7565b6040516102429190611624565b60405180910390f35b61026560048036038101906102609190611019565b610908565b6040516102729190611661565b60405180910390f35b610283610939565b604051610290919061167c565b60405180910390f35b6102b360048036038101906102ae9190610ff0565b610940565b6040516102c091906117db565b60405180910390f35b6102d1610966565b6040516102de919061167c565b60405180910390f35b61030160048036038101906102fc9190611091565b61097d565b005b61031d60048036038101906103189190611019565b610a54565b005b61033c60405161032e9061160f565b604051809103902033610908565b61037b576040517f08c379a00000000000000000000000000000000000000000000000000000000081526004016103729061171b565b60405180910390fd5b60648160ff16106103c1576040517f08c379a00000000000000000000000000000000000000000000000000000000081526004016103b8906116fb565b60405180910390fd5b6000600160009054906101000a900460ff16905081600160006101000a81548160ff021916908360ff1602179055507faf709979f6761875a7de96a106eb2d77e9a5653f6d6fffd45730779efe5012d881600160009054906101000a900460ff16604051610430929190611811565b60405180910390a15050565b6000806000838152602001908152602001600020600201549050919050565b6104816000808481526020019081526020016000206002015461047c610ac7565b610908565b6104c0576040517f08c379a00000000000000000000000000000000000000000000000000000000081526004016104b7906116db565b60405180910390fd5b6104ca8282610acf565b5050565b6104d6610ac7565b73ffffffffffffffffffffffffffffffffffffffff168173ffffffffffffffffffffffffffffffffffffffff1614610543576040517f08c379a000000000000000000000000000000000000000000000000000000000815260040161053a906117bb565b60405180910390fd5b61054d8282610b62565b5050565b61056e6040516105609061160f565b604051809103902033610908565b6105ad576040517f08c379a00000000000000000000000000000000000000000000000000000000081526004016105a49061179b565b60405180910390fd5b60048282909180600181540180825580915050600190039060005260206000200160009091929091929091929091925091906105ea929190610ead565b507fee204334f32e4a008a343b8962c7dd99d17104c902f7224be014dd69007ad73a60405160405180910390a15050565b61063860405161062a9061160f565b604051809103902033610908565b610677576040517f08c379a000000000000000000000000000000000000000000000000000000000815260040161066e9061173b565b60405180910390fd5b60028282909180600181540180825580915050600190039060005260206000200160009091929091929091929091925091906106b4929190610ead565b507fc2f8365fcbdb8943fca7627eeb06d2c090b1f5300bb61f2bc1bde607b59ab97182826040516106e6929190611697565b60405180910390a15050565b600160009054906101000a900460ff1681565b60606002805480602002602001604051908101604052809291908181526020016000905b828210156107e5578382906000526020600020018054600181600116156101000203166002900480601f0160208091040260200160405190810160405280929190818152602001828054600181600116156101000203166002900480156107d15780601f106107a6576101008083540402835291602001916107d1565b820191906000526020600020905b8154815290600101906020018083116107b457829003601f168201915b505050505081526020019060010190610729565b50505050905090565b60606003805480602002602001604051908101604052809291908181526020016000905b828210156108ce578382906000526020600020018054600181600116156101000203166002900480601f0160208091040260200160405190810160405280929190818152602001828054600181600116156101000203166002900480156108ba5780601f1061088f576101008083540402835291602001916108ba565b820191906000526020600020905b81548152906001019060200180831161089d57829003601f168201915b505050505081526020019060010190610812565b50505050905090565b600061090082600080868152602001908152602001600020600001610bf590919063ffffffff16565b905092915050565b600061093182600080868152602001908152602001600020600001610c0f90919063ffffffff16565b905092915050565b6000801b81565b600061095f600080848152602001908152602001600020600001610c3f565b9050919050565b6040516109729061160f565b604051809103902081565b61099a60405161098c9061160f565b604051809103902033610908565b6109d9576040517f08c379a00000000000000000000000000000000000000000000000000000000081526004016109d09061177b565b60405180910390fd5b6003828290918060018154018082558091505060019003906000526020600020016000909192909192909192909192509190610a16929190610ead565b507f052805b5c84ff34234edd03b8ac9da8d65df8b1dc3ca9621d93a1228ae2471668282604051610a48929190611697565b60405180910390a15050565b610a7a60008084815260200190815260200160002060020154610a75610ac7565b610908565b610ab9576040517f08c379a0000000000000000000000000000000000000000000000000000000008152600401610ab09061175b565b60405180910390fd5b610ac38282610b62565b5050565b600033905090565b610af681600080858152602001908152602001600020600001610c5490919063ffffffff16565b15610b5e57610b03610ac7565b73ffffffffffffffffffffffffffffffffffffffff168173ffffffffffffffffffffffffffffffffffffffff16837f2f8788117e7eff1d82e926ec794901d17c78024a50270940304540a733656f0d60405160405180910390a45b5050565b610b8981600080858152602001908152602001600020600001610c8490919063ffffffff16565b15610bf157610b96610ac7565b73ffffffffffffffffffffffffffffffffffffffff168173ffffffffffffffffffffffffffffffffffffffff16837ff6391f5c32d9c69d2a47ea670b442974b53935d1edc7fd64eb21e047a839171b60405160405180910390a45b5050565b6000610c048360000183610cb4565b60001c905092915050565b6000610c37836000018373ffffffffffffffffffffffffffffffffffffffff1660001b610d21565b905092915050565b6000610c4d82600001610d44565b9050919050565b6000610c7c836000018373ffffffffffffffffffffffffffffffffffffffff1660001b610d55565b905092915050565b6000610cac836000018373ffffffffffffffffffffffffffffffffffffffff1660001b610dc5565b905092915050565b600081836000018054905011610cff576040517f08c379a0000000000000000000000000000000000000000000000000000000008152600401610cf6906116bb565b60405180910390fd5b826000018281548110610d0e57fe5b9060005260206000200154905092915050565b600080836001016000848152602001908152602001600020541415905092915050565b600081600001805490509050919050565b6000610d618383610d21565b610dba578260000182908060018154018082558091505060019003906000526020600020016000909190919091505582600001805490508360010160008481526020019081526020016000208190555060019050610dbf565b600090505b92915050565b60008083600101600084815260200190815260200160002054905060008114610ea15760006001820390506000600186600001805490500390506000866000018281548110610e1057fe5b9060005260206000200154905080876000018481548110610e2d57fe5b9060005260206000200181905550600183018760010160008381526020019081526020016000208190555086600001805480610e6557fe5b60019003818190600052602060002001600090559055866001016000878152602001908152602001600020600090556001945050505050610ea7565b60009150505b92915050565b828054600181600116156101000203166002900490600052602060002090601f016020900481019282601f10610eee57803560ff1916838001178555610f1c565b82800160010185558215610f1c579182015b82811115610f1b578235825591602001919060010190610f00565b5b509050610f299190610f2d565b5090565b610f4f91905b80821115610f4b576000816000905550600101610f33565b5090565b90565b600081359050610f618161195d565b92915050565b600081359050610f7681611974565b92915050565b60008083601f840112610f8e57600080fd5b8235905067ffffffffffffffff811115610fa757600080fd5b602083019150836001820283011115610fbf57600080fd5b9250929050565b600081359050610fd58161198b565b92915050565b600081359050610fea816119a2565b92915050565b60006020828403121561100257600080fd5b600061101084828501610f67565b91505092915050565b6000806040838503121561102c57600080fd5b600061103a85828601610f67565b925050602061104b85828601610f52565b9150509250929050565b6000806040838503121561106857600080fd5b600061107685828601610f67565b925050602061108785828601610fc6565b9150509250929050565b600080602083850312156110a457600080fd5b600083013567ffffffffffffffff8111156110be57600080fd5b6110ca85828601610f7c565b92509250509250929050565b6000602082840312156110e857600080fd5b60006110f684828501610fdb565b91505092915050565b600061110b83836111e2565b905092915050565b61111c816118ab565b82525050565b600061112d8261184a565b611137818561186d565b9350836020820285016111498561183a565b8060005b85811015611185578484038952815161116685826110ff565b945061117183611860565b925060208a0199505060018101905061114d565b50829750879550505050505092915050565b6111a0816118bd565b82525050565b6111af816118c9565b82525050565b60006111c1838561188f565b93506111ce83858461190a565b6111d78361194c565b840190509392505050565b60006111ed82611855565b6111f7818561187e565b9350611207818560208601611919565b6112108161194c565b840191505092915050565b600061122860228361188f565b91507f456e756d657261626c655365743a20696e646578206f7574206f6620626f756e60008301527f64730000000000000000000000000000000000000000000000000000000000006020830152604082019050919050565b600061128e602f8361188f565b91507f416363657373436f6e74726f6c3a2073656e646572206d75737420626520616e60008301527f2061646d696e20746f206772616e7400000000000000000000000000000000006020830152604082019050919050565b60006112f460408361188f565b91507f476f7665726e616e63654465636973696f6e733a3a7365744d61726b6574706c60008301527f61636546656520666565206d757374206265206c657373207468616e203130306020830152604082019050919050565b600061135a60378361188f565b91507f476f7665726e616e63654465636973696f6e733a3a7365744d61726b6574706c60008301527f6163654665652041434345535320464f5242494444454e0000000000000000006020830152604082019050919050565b60006113c0603c8361188f565b91507f476f7665726e616e63654465636973696f6e733a3a6164644d61726b6574706c60008301527f61636543617465676f72792041434345535320464f5242494444454e000000006020830152604082019050919050565b600061142660308361188f565b91507f416363657373436f6e74726f6c3a2073656e646572206d75737420626520616e60008301527f2061646d696e20746f207265766f6b65000000000000000000000000000000006020830152604082019050919050565b600061148c600d836118a0565b91507f474f5645524e4f525f524f4c45000000000000000000000000000000000000006000830152600d82019050919050565b60006114cc60398361188f565b91507f476f7665726e616e63654465636973696f6e733a3a616464466f756e6461746960008301527f6f6e4d656d6265722041434345535320464f5242494444454e000000000000006020830152604082019050919050565b6000611532602f8361188f565b91507f476f7665726e616e63654465636973696f6e733a3a616464546573746572204160008301527f434345535320464f5242494444454e00000000000000000000000000000000006020830152604082019050919050565b6000611598602f8361188f565b91507f416363657373436f6e74726f6c3a2063616e206f6e6c792072656e6f756e636560008301527f20726f6c657320666f722073656c6600000000000000000000000000000000006020830152604082019050919050565b6115fa816118f3565b82525050565b611609816118fd565b82525050565b600061161a8261147f565b9150819050919050565b60006020820190506116396000830184611113565b92915050565b600060208201905081810360008301526116598184611122565b905092915050565b60006020820190506116766000830184611197565b92915050565b600060208201905061169160008301846111a6565b92915050565b600060208201905081810360008301526116b28184866111b5565b90509392505050565b600060208201905081810360008301526116d48161121b565b9050919050565b600060208201905081810360008301526116f481611281565b9050919050565b60006020820190508181036000830152611714816112e7565b9050919050565b600060208201905081810360008301526117348161134d565b9050919050565b60006020820190508181036000830152611754816113b3565b9050919050565b6000602082019050818103600083015261177481611419565b9050919050565b60006020820190508181036000830152611794816114bf565b9050919050565b600060208201905081810360008301526117b481611525565b9050919050565b600060208201905081810360008301526117d48161158b565b9050919050565b60006020820190506117f060008301846115f1565b92915050565b600060208201905061180b6000830184611600565b92915050565b60006040820190506118266000830185611600565b6118336020830184611600565b9392505050565b6000819050602082019050919050565b600081519050919050565b600081519050919050565b6000602082019050919050565b600082825260208201905092915050565b600082825260208201905092915050565b600082825260208201905092915050565b600081905092915050565b60006118b6826118d3565b9050919050565b60008115159050919050565b6000819050919050565b600073ffffffffffffffffffffffffffffffffffffffff82169050919050565b6000819050919050565b600060ff82169050919050565b82818337600083830152505050565b60005b8381101561193757808201518184015260208101905061191c565b83811115611946576000848401525b50505050565b6000601f19601f8301169050919050565b611966816118ab565b811461197157600080fd5b50565b61197d816118c9565b811461198857600080fd5b50565b611994816118f3565b811461199f57600080fd5b50565b6119ab816118fd565b81146119b657600080fd5b5056fea2646970667358221220613e18703800d86ed56652f32cc2c2cbb174e032c2e90cb99e626d6fd840890f64736f6c63430006070033",
  "devdoc": {
    "methods": {
      "getRoleAdmin(bytes32)": {
        "details": "Returns the admin role that controls `role`. See {grantRole} and {revokeRole}.     * To change a role's admin, use {_setRoleAdmin}."
      },
      "getRoleMember(bytes32,uint256)": {
        "details": "Returns one of the accounts that have `role`. `index` must be a value between 0 and {getRoleMemberCount}, non-inclusive.     * Role bearers are not sorted in any particular way, and their ordering may change at any point.     * WARNING: When using {getRoleMember} and {getRoleMemberCount}, make sure you perform all queries on the same block. See the following https://forum.openzeppelin.com/t/iterating-over-elements-on-enumerableset-in-openzeppelin-contracts/2296[forum post] for more information."
      },
      "getRoleMemberCount(bytes32)": {
        "details": "Returns the number of accounts that have `role`. Can be used together with {getRoleMember} to enumerate all bearers of a role."
      },
      "grantRole(bytes32,address)": {
        "details": "Grants `role` to `account`.     * If `account` had not been already granted `role`, emits a {RoleGranted} event.     * Requirements:     * - the caller must have ``role``'s admin role."
      },
      "hasRole(bytes32,address)": {
        "details": "Returns `true` if `account` has been granted `role`."
      },
      "renounceRole(bytes32,address)": {
        "details": "Revokes `role` from the calling account.     * Roles are often managed via {grantRole} and {revokeRole}: this function's purpose is to provide a mechanism for accounts to lose their privileges if they are compromised (such as when a trusted device is misplaced).     * If the calling account had been granted `role`, emits a {RoleRevoked} event.     * Requirements:     * - the caller must be `account`."
      },
      "revokeRole(bytes32,address)": {
        "details": "Revokes `role` from `account`.     * If `account` had been granted `role`, emits a {RoleRevoked} event.     * Requirements:     * - the caller must have ``role``'s admin role."
      }
    }
  },
  "userdoc": {
    "methods": {}
  },
  "storageLayout": {
    "storage": [
      {
        "astId": 22,
        "contract": "contracts/GovernanceDecisions.sol:GovernanceDecisions",
        "label": "_roles",
        "offset": 0,
        "slot": "0",
        "type": "t_mapping(t_bytes32,t_struct(RoleData)18_storage)"
      },
      {
        "astId": 2092,
        "contract": "contracts/GovernanceDecisions.sol:GovernanceDecisions",
        "label": "marketplaceFee",
        "offset": 0,
        "slot": "1",
        "type": "t_uint8"
      },
      {
        "astId": 2095,
        "contract": "contracts/GovernanceDecisions.sol:GovernanceDecisions",
        "label": "marketplaceCategories",
        "offset": 0,
        "slot": "2",
        "type": "t_array(t_string_storage)dyn_storage"
      },
      {
        "astId": 2098,
        "contract": "contracts/GovernanceDecisions.sol:GovernanceDecisions",
        "label": "foundationMemberships",
        "offset": 0,
        "slot": "3",
        "type": "t_array(t_string_storage)dyn_storage"
      },
      {
        "astId": 2101,
        "contract": "contracts/GovernanceDecisions.sol:GovernanceDecisions",
        "label": "testers",
        "offset": 0,
        "slot": "4",
        "type": "t_array(t_string_storage)dyn_storage"
      }
    ],
    "types": {
      "t_array(t_bytes32)dyn_storage": {
        "base": "t_bytes32",
        "encoding": "dynamic_array",
        "label": "bytes32[]",
        "numberOfBytes": "32"
      },
      "t_array(t_string_storage)dyn_storage": {
        "base": "t_string_storage",
        "encoding": "dynamic_array",
        "label": "string[]",
        "numberOfBytes": "32"
      },
      "t_bytes32": {
        "encoding": "inplace",
        "label": "bytes32",
        "numberOfBytes": "32"
      },
      "t_mapping(t_bytes32,t_struct(RoleData)18_storage)": {
        "encoding": "mapping",
        "key": "t_bytes32",
        "label": "mapping(bytes32 => struct AccessControl.RoleData)",
        "numberOfBytes": "32",
        "value": "t_struct(RoleData)18_storage"
      },
      "t_mapping(t_bytes32,t_uint256)": {
        "encoding": "mapping",
        "key": "t_bytes32",
        "label": "mapping(bytes32 => uint256)",
        "numberOfBytes": "32",
        "value": "t_uint256"
      },
      "t_string_storage": {
        "encoding": "bytes",
        "label": "string",
        "numberOfBytes": "32"
      },
      "t_struct(AddressSet)877_storage": {
        "encoding": "inplace",
        "label": "struct EnumerableSet.AddressSet",
        "members": [
          {
            "astId": 876,
            "contract": "contracts/GovernanceDecisions.sol:GovernanceDecisions",
            "label": "_inner",
            "offset": 0,
            "slot": "0",
            "type": "t_struct(Set)612_storage"
          }
        ],
        "numberOfBytes": "64"
      },
      "t_struct(RoleData)18_storage": {
        "encoding": "inplace",
        "label": "struct AccessControl.RoleData",
        "members": [
          {
            "astId": 15,
            "contract": "contracts/GovernanceDecisions.sol:GovernanceDecisions",
            "label": "members",
            "offset": 0,
            "slot": "0",
            "type": "t_struct(AddressSet)877_storage"
          },
          {
            "astId": 17,
            "contract": "contracts/GovernanceDecisions.sol:GovernanceDecisions",
            "label": "adminRole",
            "offset": 0,
            "slot": "2",
            "type": "t_bytes32"
          }
        ],
        "numberOfBytes": "96"
      },
      "t_struct(Set)612_storage": {
        "encoding": "inplace",
        "label": "struct EnumerableSet.Set",
        "members": [
          {
            "astId": 607,
            "contract": "contracts/GovernanceDecisions.sol:GovernanceDecisions",
            "label": "_values",
            "offset": 0,
            "slot": "0",
            "type": "t_array(t_bytes32)dyn_storage"
          },
          {
            "astId": 611,
            "contract": "contracts/GovernanceDecisions.sol:GovernanceDecisions",
            "label": "_indexes",
            "offset": 0,
            "slot": "1",
            "type": "t_mapping(t_bytes32,t_uint256)"
          }
        ],
        "numberOfBytes": "64"
      },
      "t_uint256": {
        "encoding": "inplace",
        "label": "uint256",
        "numberOfBytes": "32"
      },
      "t_uint8": {
        "encoding": "inplace",
        "label": "uint8",
        "numberOfBytes": "1"
      }
    }
  }
}