{
  "contractName": "Governance",
  "abi": [
    {
      "inputs": [
        {
          "internalType": "string",
          "name": "_name",
          "type": "string"
        },
        {
          "internalType": "address",
          "name": "_bTrust",
          "type": "address"
        },
        {
          "internalType": "address",
          "name": "_guardian",
          "type": "address"
        }
      ],
      "stateMutability": "nonpayable",
      "type": "constructor"
    },
    {
      "inputs": [],
      "name": "bTrust",
      "outputs": [
        {
          "internalType": "contract BTRUST",
          "name": "",
          "type": "address"
        }
      ],
      "stateMutability": "view",
      "type": "function"
    },
    {
      "inputs": [],
      "name": "guardian",
      "outputs": [
        {
          "internalType": "address",
          "name": "",
          "type": "address"
        }
      ],
      "stateMutability": "view",
      "type": "function"
    },
    {
      "inputs": [],
      "name": "name",
      "outputs": [
        {
          "internalType": "string",
          "name": "",
          "type": "string"
        }
      ],
      "stateMutability": "view",
      "type": "function"
    }
  ],
  "bytecode": "0x608060405234801561001057600080fd5b506040516104a33803806104a38339818101604052606081101561003357600080fd5b810190808051604051939291908464010000000082111561005357600080fd5b8382019150602082018581111561006957600080fd5b825186600182028301116401000000008211171561008657600080fd5b8083526020830192505050908051906020019080838360005b838110156100ba57808201518184015260208101905061009f565b50505050905090810190601f1680156100e75780820380516001836020036101000a031916815260200191505b506040526020018051906020019092919080519060200190929190505050826000908051906020019061011b9291906101a6565b5081600260006101000a81548173ffffffffffffffffffffffffffffffffffffffff021916908373ffffffffffffffffffffffffffffffffffffffff16021790555080600160006101000a81548173ffffffffffffffffffffffffffffffffffffffff021916908373ffffffffffffffffffffffffffffffffffffffff160217905550505050610243565b828054600181600116156101000203166002900490600052602060002090601f016020900481019282601f106101e757805160ff1916838001178555610215565b82800160010185558215610215579182015b828111156102145782518255916020019190600101906101f9565b5b5090506102229190610226565b5090565b5b8082111561023f576000816000905550600101610227565b5090565b610251806102526000396000f3fe608060405234801561001057600080fd5b50600436106100415760003560e01c806306fdde0314610046578063452a9320146100c9578063a2c507e5146100fd575b600080fd5b61004e610131565b6040518080602001828103825283818151815260200191508051906020019080838360005b8381101561008e578082015181840152602081019050610073565b50505050905090810190601f1680156100bb5780820380516001836020036101000a031916815260200191505b509250505060405180910390f35b6100d16101cf565b604051808273ffffffffffffffffffffffffffffffffffffffff16815260200191505060405180910390f35b6101056101f5565b604051808273ffffffffffffffffffffffffffffffffffffffff16815260200191505060405180910390f35b60008054600181600116156101000203166002900480601f0160208091040260200160405190810160405280929190818152602001828054600181600116156101000203166002900480156101c75780601f1061019c576101008083540402835291602001916101c7565b820191906000526020600020905b8154815290600101906020018083116101aa57829003601f168201915b505050505081565b600160009054906101000a900473ffffffffffffffffffffffffffffffffffffffff1681565b600260009054906101000a900473ffffffffffffffffffffffffffffffffffffffff168156fea26469706673582212203d71ddb206a9fc614fe41408f104c5235b8770f3fe6d41df89af38c5ba1d4bf764736f6c63430007030033",
  "immutableReferences": {},
  "source": "// SPDX-License-Identifier: MIT\npragma solidity 0.7.3;\n\nimport \"@openzeppelin/contracts/token/ERC20/ERC20.sol\";\nimport \"./BTRUST.sol\";\n\ncontract Governance {\n\n    /// @notice The name of this contract\n    string public name;\n\n    /// @notice The address of the Governor Guardian\n    address public guardian;\n\n    /// @notice The address of the BTRUST Token\n    BTRUST public bTrust;\n\n    constructor(string memory _name, address _bTrust, address _guardian) {\n        name   = _name;\n        bTrust = BTRUST(_bTrust);\n        guardian = _guardian;\n    }\n}\n\n\n\n",
  "sourcePath": "/Users/zed/Desktop/ZED/Zed_Blockchain/projects/BrainTrustGovernance/BTRUST-Contracts/contracts/Governance.sol",
  "compiler": {
    "name": "solc",
    "version": "0.7.3+commit.9bfce1f6.Emscripten.clang"
  },
  "schemaVersion": "3.3.4",
  "updatedAt": "2021-03-06T14:52:05.510Z",
  "devdoc": {
    "kind": "dev",
    "methods": {},
    "version": 1
  },
  "userdoc": {
    "kind": "user",
    "methods": {
      "bTrust()": {
        "notice": "The address of the BTRUST Token"
      },
      "guardian()": {
        "notice": "The address of the Governor Guardian"
      },
      "name()": {
        "notice": "The name of this contract"
      }
    },
    "version": 1
  }
}